:020000040000FA
:060000006CEF1BF0120082
:020006001200E6
:06000800DFEF13F012000F
:02000E000100EF
:0C0010006A3700000001000048000000FA
:04001C000F9E08D05B
:100020000F9E07AE05D0066C071EE86A07220F8EEA
:1000300007C001F006C000F0136A126A8E0E026E4D
:10004000036A2EEF01F00F6A6AEC01F082EC01F016
:100050000FB612EF01F00FA205D00FBA12EF01F0A8
:1000600019EF01F00FBA25EF01F00FA005D00FB87E
:1000700012EF01F025EF01F00FB819EF01F0036A5C
:100080007F0E0824026EE86A03220D50025EE86AC1
:10009000035A1A0E106E086A126A136A006A016A1D
:1000A0000A50055E0B50065A0C50075A000E085AAB
:1000B00009E70A5005260B5006220C500722000EB5
:1000C000082201D0128AD89005360636073608363F
:1000D000D8901236133600360136102EE1D707506D
:1000E00006100510D8A4128A2EEF01F00F6A6AECF0
:1000F00001F082EC01F00FB612EF01F00FA205D073
:100100000FB812EF01F019EF01F00FAA05D00FB0F0
:1001100012EF01F019EF01F00FB002D00FA802D0DA
:1001200025EF01F0036A0D500824026EE86A0322ED
:100130007E0E025EE86A035A126A136A006A016A56
:100140000C500702F4CF01F0F3CF00F00B50070280
:10015000F3501326F4500022000E01220C50060228
:10016000F3501326F4500022000E01220A50070219
:10017000F3501226F4501322000E002201220B50DD
:100180000602F3501226F4501322000E0022012220
:100190000C500502F3501226F4501322000E0022D8
:1001A00001220A500602F4501226000E13220022E9
:1001B00001220B500502F4501226000E13220022D9
:1001C00001222EEF01F00F6A6AEC01F00FB6EDEF9D
:1001D00000F00FA20ED00FB405D07F0E076EFF0EF9
:1001E000066E1FD0800E076E066A1BD0076A066A6D
:1001F00018D00FB0FBD78F0E0860EDD77E0E0864C5
:10020000F5D78E0E085C05E0D89007320632082A32
:10021000F8D70FA406D0066C071EE86A072207AEBF
:10022000E5D712007F0E086EFF0E076E066E056E94
:1002300012007F0E0FBEFF0E086E02D07F0E086EFA
:10024000800E076E066A056AF3D70FAE04D0800EE3
:10025000086E076AF7D7086A076AF4D701500010DA
:1002600013101210F8E003BEF0D701BE0CD00250FC
:100270000310EBE0D8901236133600360136020632
:10028000D8A00306F2D70350D4E10228D2E012AE80
:1002900011D07F0E121402E113A00CD0132AE86AC9
:1002A0000022012207E3D880013200321332022AF1
:1002B0000228BFE00250C9E013C005F000C006F0FC
:1002C0000134076E0230086E0732089E0FBE088E9A
:1002D00018EF01F00736083602E30F840F7E06E1BF
:1002E0000F80086A076A066A056A1200082803E098
:1002F000D88007321200D890073202E10F82120034
:100300000F8612000C360D3602E30F8C0F7E06E1CD
:100310000F880D6A0C6A0B6A0A6A12000D2803E046
:10032000D8800C321200D8900C32EAE10F8A120009
:1003300007C013F006C012F006500B02F4CF05F010
:10034000F3CF04F007500C02F4CF07F0F3CF06F020
:100350000B02F3500526F4500622E86A07221250D9
:100360000C02F3500526F4500622E86A07220CAE70
:10037000BEEF01F01250065E1350075A13AE000C88
:0A0380000B50065E0C50075A000CEB
:06038A00202020202020AD
:10039000202020202020202020202020202020205D
:1003A0002020200054454D502E415155412E3A25D4
:1003B00032642563432020090920202020002020CA
:1003C0002020202020253032643A2530326420203D
:1003D00020202020202000204174697661723A207C
:1003E00025303163202020202000202054696D65B5
:1003F0007220352000202054696D65722034200061
:10040000202054696D657220332000202054696DCE
:1004100065722032200020202050726F6772616D5B
:1004200061722020002020202054696D65722031E7
:10043000202020202020202020200020202050725A
:100440006F6772616D6172202020202020202020A3
:10045000002020202054696D65723A2025303164D7
:100460002020200050726F6772616D6120416C69BD
:100470006D652E2020202020200020202020416A91
:1004800075737461646F202020202020202020209C
:10049000202020002020202052656C6F67696F208B
:1004A0002020202020202020002020202020253057
:1004B00032643A2530326420202020202020200081
:1004C0002020486F7261202F204D696E75746F2057
:1004D0002020202020202020002020414C494D4574
:1004E0004E54414E444F202020202020200020093F
:1004F000416C696D656E7461646F7220202020000C
:1005000020416A7573746520486F72610020486FDE
:1005100072613A20253032643A253032643A25300F
:10052000326420202000204151554154524156450B
:100530004C20204D25316420202020002020202028
:1005400020202020202020202020202020202020AB
:100550002020200020202041515541545241564531
:0E0560004C20202020202020200025730000A9
:02056E00D9CFE3
:10057000E6FFDACFE6FFE1CFD9FFE2CFDAFFE652BE
:10058000E652E652E652D950F90F146EFF0EDA2009
:10059000156E020E14C0DBFF030E15C0DBFF020E4A
:1005A000DBCFE6FF030EDBCFE6FFF90EDBCFE6FF86
:1005B000FA0EDBCFE6FFFB0EDBCFE6FFD950FC0FD8
:1005C000E66EFF0EDA20E66E69EC14F0146E070E8C
:1005D000E15C02E2E16AE552E16E1450F3CFDEFF26
:1005E000F4CFDDFFFC0EDBCFE9FFFD0EDBCFEAFF32
:1005F000EF6ADECF14F0DDCF15F014C0F3FF15C0A5
:10060000F4FF040EE15C02E2E16AE552E16EE552BC
:0A061000E5CFDAFFE7CFD9FF1200B3
:06061A000E0EF66E000E4C
:10062000F76E000EF86E00010900F550DF6F09004B
:10063000F550E06F03E1DF6701D03DD00900F550D0
:10064000DA6F0900F550DB6F0900F550DC6F090027
:100650000900F550E96E0900F550EA6E090009003D
:100660000900F550DD6F0900F550DE6F0900090043
:10067000F6CFE1F0F7CFE2F0F8CFE3F0DAC0F6FF23
:10068000DBC0F7FFDCC0F8FF0001DD5302E1DE5301
:1006900007E00900F550EE6EDD07F8E2DE07F9D756
:1006A000E1C0F6FFE2C0F7FFE3C0F8FF0001DF079B
:0806B000000EE05BBFD7120051
:0806B800D9CFE6FFDACFE6FF1F
:1006C000E1CFD9FFE2CFDAFFFB0EDBCF14F0FC0E57
:1006D000DBCF15F00001800E15141AE1FB0EDBCF05
:1006E000E9FFFC0EDBCFEAFFEECFF3FFEDCFF4FF27
:1006F000EE2A000EEF22F3CFE9FFF4CFEAFFFD0E62
:10070000DBCFEFFFEF50156AF36E15C0F4FF10D08A
:10071000FB0EDB50FE0806E1FD0EDBCFE6FF7AECB8
:100720001BF005D0FD0EDBCFE6FF03EC00F0E55239
:0C073000E552E5CFDAFFE7CFD9FF120059
:04073C00045009025A
:10074000F3CF00F0F4CF01F00A02F3500126000EBF
:10075000F420026E04500B02F3500226000EF42027
:10076000036E04500C02F350032605500902F350A7
:100770000126F4500222000E032205500A02F35013
:100780000226F450032205500B02F35003260650B4
:100790000902F3500226F450032206500A02F350D5
:0C07A000032607500902F3500326120044
:0407AC00036A026A70
:1007B000016A006A200EE76ED890043605360636C8
:1007C000073600360136023603360950005C0A50FF
:1007D00001580B5002580C50035809E30950005EB1
:1007E0000A50015A0B50025A0C50035A042AE72EA1
:0407F000E4D7120038
:0A07F400C250020B01E0010E1200DA
:0207FE001200E7
:060800006CEF1BF012007A
:0A080600D9CFE6FFE1CFD9FFFD0EC8
:10081000DB50010B02E0838801D08398FD0EDB5092
:10082000020B02E0838A01D0839AFD0EDB50040B99
:1008300002E0838C01D0839CFD0EDB50080B02E0AC
:10084000838E01D0839E83820000000000000000A0
:100850000000839200D0E552E7CFD9FF1200D9CF34
:10086000E6FFE1CFD9FFFE0EDB5002E1839401D019
:100870008384050EE66E88EC1BF0E5528392FC0E35
:10088000DBCF14F0FD0EDBCF15F0040ED89015323F
:100890001432E804FBE114C0E6FF15C0E6FFB3DF45
:1008A000E552E5520F0EE76EFC0EDBCF14F0FD0EA5
:1008B000DBCF15F0E7501416156A14C0E6FF15C01B
:1008C000E6FFA1DFE552E552020EE66E88EC1BF072
:1008D000E55200D0E552E7CFD9FF1200010EE66ED7
:1008E000E66AE66ABCDFE552E552E552010EE66EC5
:1008F00006EC1BF0E55200D0120083968398839A91
:10090000839C839E839483924B0EE66E06EC1BF0D1
:10091000E552030EE66EE66A76DFE552E552190E01
:10092000E66E06EC1BF0E552030EE66EE66A6BDF40
:10093000E552E552190EE66E06EC1BF0E552030E89
:10094000E66EE66A60DFE552E552190EE66E06ECE9
:100950001BF0E552020EE66EE66A55DFE552E552FF
:10096000050EE66E06EC1BF0E552280EE66EE66A12
:10097000E66A75DFE552E552E5520C0EE66EE66A70
:10098000E66A6DDFE552E552E552A8DF060EE66E37
:10099000E66AE66A64DFE552E552E55200D01200ED
:1009A000D9CFE6FFE1CFD9FFFE0EDBCFE6FFE66A47
:1009B000010EE66E54DFE552E552E552E552E7CF0F
:1009C000D9FF1200D9CFE6FFE1CFD9FFFD0EDBCF73
:1009D000F6FFFE0EDBCFF7FF0800F55011E0FD0E2D
:1009E000DBCFF6FFFE0EDBCFF7FF0800F550E66E1B
:1009F000D7DFE552FD0EDB2AFE0E01E3DB2AE6D748
:100A0000E552E7CFD9FF1200D9CFE6FFE1CFD9FFFA
:100A1000FD0EDBCFE9FFFE0EDBCFEAFFEF5010E06B
:100A2000FD0EDBCFE9FFFE0EDBCFEAFFEF50E66EF7
:100A3000B7DFE552FD0EDB2AFE0E01E3DB2AE8D725
:100A4000E552E7CFD9FF1200D9CFE6FFE1CFD9FFBA
:100A5000020EE126DE6ADD6ADECF14F0DDCF15F08E
:100A6000FD0EDBCF16F0FE0EDBCF17F01650145C38
:100A7000175015580AE2780EE66E88EC1BF0E55226
:100A8000DF2A010E01E3DB2AE7D7020EE15C02E276
:100A9000E16AE552E16EE552E7CFD9FF1200D9CF06
:100AA000E6FFE1CFD9FF020EE126020E146E156AB1
:100AB000FD0EDBCF06F0FE0EDBCF07F014C00BF00F
:100AC00015C00CF034EC1BF0FD0E06C0DBFFFE0E73
:100AD00007C0DBFFDE6ADD6ADECF14F0DDCF15F084
:100AE000FD0EDBCF16F0FE0EDBCF17F01650145CB8
:100AF0001750155811E2000000000000000000002F
:100B00000000000000000000000000000000DF2ADC
:100B1000010E01E3DB2AE0D7020EE15C02E2E16AAA
:100B2000E552E16EE552E7CFD9FF1200D9CFE6FFDB
:100B3000E1CFD9FF020EE126DE6ADD6ADECF14F0D6
:100B4000DDCF15F0FD0EDBCF16F0FE0EDBCF17F07C
:100B50001650145C175015580FE2FA0EE66E06ECAC
:100B60001BF0E552FA0EE66E06EC1BF0E552DF2AAA
:100B7000010E01E3DB2AE2D7020EE15C02E2E16A48
:100B8000E552E16EE552E7CFD9FF1200D9CFE6FF7B
:100B9000E1CFD9FF1B0EE126D950080FE96EDACF5D
:100BA000EAFF200EEE6EEE6AEE6AEE6AEE6AEE6A1A
:100BB000EE6AEE6AEE6AEE6AEE6AEE6AEE6AEE6A75
:100BC000EE6AEE6AEE6AD950190FE96EDACFEAFFE3
:100BD0006D0EEE6E050EED6EFD0EDBCFE6FFFE0E2A
:100BE000DBCFE6FFD950080FE66E000EDA20E66E86
:100BF000B7EC02F0E552E552E552E552D950080F44
:100C0000146EDACF15F0190E14C0DBFF1A0E15C0E2
:100C1000DBFFFC0EDB0403E1800EDE6EDD6AFC0E02
:100C2000DB50020803E1C00EDE6EDD6A100EF36ECB
:100C3000020EF3CFDBFF030EDB6A020EDBCF14F0F4
:100C4000030EDBCF15F00001800E15143CE1020EFF
:100C5000DBCF16F0030EDBCF17F0190EDB50162496
:100C6000146E1A0EDB501720156E14C0E6FF15C067
:100C7000E6FF6A0EE66E050EE66E800EE66E000E6C
:100C8000E66EB7EC02F0186E060EE15E1850DECF8D
:100C9000E6FFDDCFE6FFE66AE2DDE552E552E5522A
:100CA000800EE66E000EE66EAFDEE552E552960E61
:100CB000E66EE66AC9DEE552E552020EDB06030E79
:100CC00001E2DB06BAD7010EE66EE66A2FDFE552D7
:100CD000E5521B0EE15C02E2E16AE552E16EE5528B
:100CE000E7CFD9FF1200D9CFE6FFE1CFD9FF190E28
:100CF000E126D950060FE96EDACFEAFF200EEE6E3C
:100D0000EE6EEE6AEE6AEE6AEE6AEE6AEE6AEE6A1F
:100D1000EE6AEE6AEE6AEE6AEE6AEE6AEE6AEE6A13
:100D2000D950170FE96EDACFEAFF6D0EEE6E050EA1
:100D3000ED6EFD0EDBCFE6FFFE0EDBCFE6FFD950FA
:100D4000060FE66E000EDA20E66EB7EC02F0E55212
:100D5000E552E552E552D950060F146EDACF15F080
:100D6000170E14C0DBFF180E15C0DBFFFC0EDB04F2
:100D70000EE1800EF36E020EF3CFDBFF030EDB6A93
:100D80008F0EF36E040EF3CFDBFF050EDB6AFC0E55
:100D9000DB5002080EE1C00EF36E020EF3CFDBFF54
:100DA000030EDB6ACF0EF36E040EF3CFDBFF050EEE
:100DB000DB6A040EDBCFDEFFDBCFDDFFDECF14F01E
:100DC000DDCF15F0020EDBCF16F0030EDBCF17F0F0
:100DD00015501718E8AE02D0173404D01650145C22
:100DE000175015582FE3170EDBCFE6FF180EDBCF99
:100DF000E6FF6A0EE66E050EE66E800EE66E000EEB
:100E0000E66EB7EC02F0146E060EE15E1450DECF13
:100E1000E6FFDDCFE6FFE66A22DDE552E552E55268
:100E2000800EE66E000EE66EEFDDE552E552960EA0
:100E3000E66EE66A09DEE552E552DF06010E01E2E2
:100E4000DB06BCD7010EE66EE66A70DEE552E552BF
:100E5000190EE15C02E2E16AE552E16EE552E7CF8C
:100E6000D9FF1200D9CFE6FFE1CFD9FFD950FD0F4E
:100E7000E96EFF0EDA20EA6EEE50ED1001E184908B
:100E8000D950FD0FE96EFF0EDA20EA6E010EEE1862
:100E900001E1ED5001E18480E552E7CFD9FF120076
:100EA000D9CFE6FFE1CFD9FF100EE1260E0EDF6E9F
:100EB000DE521D0EDD6E1F0EF36E020EF3CFDBFF52
:100EC0001F0EF36E030EF3CFDBFF180EF36E040E4E
:100ED000F3CFDBFF1F0EF36E050EF3CFDBFF1F0E0C
:100EE000F36E060EF3CFDBFF0E0EF36E070EF3CF9D
:100EF000DBFF040EF36E080EF3CFDBFF040EF36E80
:100F0000090EF3CFDBFF1F0EF36E0A0EF3CFDBFFEC
:100F10001F0EF36E0B0EF3CFDBFF040EF36E0C0E01
:100F2000F3CFDBFF040EF36E0D0EF3CFDBFF040EE9
:100F3000F36E0E0EF3CFDBFF040EF36E0F0EF3CF46
:100F4000DBFF83968394050EE66EE66AA8DDE55224
:100F5000E552400EE66EE66AE66A81DCE552E5524D
:100F6000E552050EE66EE66A9ADDE552E5528384A7
:100F7000050EE66EE66A68DDE552E5520001916B0A
:100F8000926B923504E291510708000E92551EE3D0
:100F9000D9CF14F0DACF15F014509125E96E155021
:100FA0009221EA6EEF50E66EE66A010EE66E57DCBD
:100FB000E552E552E552050EE66EE66A45DDE5527C
:100FC000E5520001912B000E9223DBD7916B926BBF
:100FD000923504E291510708000E92551FE3D95053
:100FE000080F146EDACF15F014509125E96E1550E4
:100FF0009221EA6EEF50E66EE66A010EE66E2FDC95
:10100000E552E552E552050EE66EE66A1DDDE55253
:10101000E5520001912B000E9223DAD7100EE15C0D
:1010200003E200D0E16AE552E16EE552E7CFD9FF75
:101030001200FD0EE66E040EE66ED30EE66E64EC54
:101040001AF0E552E552E552FD0EE66E0C0EE66E24
:10105000D30EE66E64EC1AF0E552E552E552870EC7
:10106000E66E1DEC1BF0E5528F0EE66E1DEC1BF0DC
:10107000E552050EE66E96EC1BF0E552806A816A39
:10108000826A836A846A896A8A6A8B6A8C6A8D6AD0
:10109000030E926E1E0E936E946A956A966A0D0EFA
:1010A000C06EF28EF28EF29CF28CD08EF28AF294A6
:1010B000F184960EE66EEAEC1AF0E5526A0EE66EE0
:1010C000670EE66ECEEC1AF0E552E55216DC71ECD6
:1010D00012F07CEC12F0540E146E050E156E166AAA
:1010E00014C0E6FF15C0E6FF16C0E6FF9B0EE66ED5
:1010F000000EE66EB7EC02F0176E050EE15E1750BB
:10110000800EE66EE66AE66A2FEC04F0E552E552E0
:10111000E5529B0EE66E000EE66E76DCE552E55279
:101120003C0E146E050E156E166A14C0E6FF15C04F
:10113000E6FF16C0E6FF9B0EE66E000EE66EB7EC0D
:1011400002F0176E050EE15E1750C00EE66EE66AFD
:10115000E66A2FEC04F0E552E552E5529B0EE66E8E
:10116000000EE66E51DCE552E552FA0EE66E06EC34
:101170001BF0E552FA0EE66E06EC1BF0E552010E8E
:1011800001011C6F1D6B818049EC13F0C4EC13F05E
:101190001CC1E6FF1DC1E6FF260E146E050E156E7E
:1011A000166A14C0E6FF15C0E6FF16C0E6FF9B0EE8
:1011B000E66E000EE66EB7EC02F0176E070EE15E0B
:1011C0001750800EE66EE66AE66A2FEC04F0E552F0
:1011D000E552E5529B0EE66E000EE66E15DCE5521A
:1011E000E55208C1E6FF09C1E6FF10C1E6FF11C1E3
:1011F000E6FF0EC1E6FF0FC1E6FF0D0E146E050EF1
:10120000156E166A14C0E6FF15C0E6FF16C0E6FFAD
:101210009B0EE66E000EE66EB7EC02F0176E0B0E3C
:10122000E15E1750C00EE66EE66AE66A2FEC04F047
:10123000E552E552E5529B0EE66E000EE66E04ECBA
:1012400005F0E552E55281A213D07CEC12F0640E59
:10125000E66E06EC1BF0E55201011C2B000E1D236F
:10126000040E1C1901E11D5103E1010E1C6F1D6BE1
:101270000101010E1C1901E11D513AE18150080BD9
:1012800037E07CEC12F0640EE66E06EC1BF0E552E3
:10129000000E146E050E156E166A14C0E6FF15C01A
:1012A000E6FF16C0E6FF9B0EE66E000EE66EB7EC9C
:1012B00002F0176E050EE15E1750800EE66EE66ACC
:1012C000E66A2FEC04F0E552E552E5529B0EE66E1D
:1012D000000EE66E04EC05F0E552E552640EE66E93
:1012E00006EC1BF0E552010E01011E6F1F6BB5D914
:1012F0000101020E1C1901E11D513AE18150080B58
:1013000037E07CEC12F0640EE66E06EC1BF0E55262
:10131000EE0E146E040E156E166A14C0E6FF15C0AC
:10132000E6FF16C0E6FF9B0EE66E000EE66EB7EC1B
:1013300002F0176E050EE15E1750800EE66EE66A4B
:10134000E66A2FEC04F0E552E552E5529B0EE66E9C
:10135000000EE66E04EC05F0E552E552960EE66EE0
:1013600006EC1BF0E552010E01011E6F1F6B60DAE7
:101370000101030E1C1901E11D5105E18150080B0B
:1013800002E090EC12F001010E512A1902E10F5116
:101390002B1941E11051341902E1115135193BE18A
:1013A000010E3E1901E13F5136E1010E081901E13C
:1013B000095131E1D90E146E040E156E166A14C06F
:1013C000E6FF15C0E6FF16C0E6FF9B0EE66E000EB8
:1013D000E66EB7EC02F0176E050EE15E1750800E58
:1013E000E66EE66AE66A2FEC04F0E552E552E55255
:1013F0009B0EE66E000EE66E04EC05F0E552E5523B
:10140000320EE66E06EC1BF0E552010E01011E6F76
:101410001F6B1EEC12F001010E512C1902E10F514D
:101420002D1941E11051361902E1115137193BE1F3
:10143000010E401901E1415136E1010E081901E1A7
:10144000095131E1D90E146E040E156E166A14C0DE
:10145000E6FF15C0E6FF16C0E6FF9B0EE66E000E27
:10146000E66EB7EC02F0176E050EE15E1750800EC7
:10147000E66EE66AE66A2FEC04F0E552E552E552C4
:101480009B0EE66E000EE66E04EC05F0E552E552AA
:10149000320EE66E06EC1BF0E552010E01011E6FE6
:1014A0001F6B1EEC12F001010E512E1902E10F51BB
:1014B0002F1941E11051381902E1115139193BE15D
:1014C000010E421901E1435136E1010E081901E113
:1014D000095131E1D90E146E040E156E166A14C04E
:1014E000E6FF15C0E6FF16C0E6FF9B0EE66E000E97
:1014F000E66EB7EC02F0176E050EE15E1750800E37
:10150000E66EE66AE66A2FEC04F0E552E552E55233
:101510009B0EE66E000EE66E04EC05F0E552E55219
:10152000320EE66E06EC1BF0E552010E01011E6F55
:101530001F6B1EEC12F001010E51301902E10F5128
:10154000311941E110513A1902E111513B193BE1C6
:10155000040E3E1901E13F5136E1010E081901E187
:10156000095131E1D90E146E040E156E166A14C0BD
:10157000E6FF15C0E6FF16C0E6FF9B0EE66E000E06
:10158000E66EB7EC02F0176E050EE15E1750800EA6
:10159000E66EE66AE66A2FEC04F0E552E552E552A3
:1015A0009B0EE66E000EE66E04EC05F0E552E55289
:1015B000320EE66E06EC1BF0E552010E01011E6FC5
:1015C0001F6B1EEC12F001010E51321902E10F5196
:1015D000331941E110513C1902E111513D193BE130
:1015E000010E461901E1475136E1010E081901E1EA
:1015F000095131E1D90E146E040E156E166A14C02D
:10160000E6FF15C0E6FF16C0E6FF9B0EE66E000E75
:10161000E66EB7EC02F0176E050EE15E1750800E15
:10162000E66EE66AE66A2FEC04F0E552E552E55212
:101630009B0EE66E000EE66E04EC05F0E552E552F8
:10164000320EE66E06EC1BF0E552010E01011E6F34
:101650001F6B1EEC12F098D512000101010E1E192D
:1016600001E11F5101E0E3D07CEC12F0C00E146EDA
:10167000040E156E166A14C0E6FF15C0E6FF16C00C
:10168000E6FF9B0EE66E000EE66EB7EC02F0176EFC
:10169000050EE15E1750800EE66EE66AE66A2FECF4
:1016A00004F0E552E552E5529B0EE66E000EE66E42
:1016B00004EC05F0E552E55210C1E6FF11C1E6FF6A
:1016C0000EC1E6FF0FC1E6FFA90E146E040E156EE3
:1016D000166A14C0E6FF15C0E6FF16C0E6FF9B0EB3
:1016E000E66E000EE66EB7EC02F0176E090EE15ED4
:1016F0001750C00EE66EE66AE66A2FEC04F0E5527B
:10170000E552E5529B0EE66E000EE66E04EC05F027
:10171000E552E55201013C0E081901E1095102E1CF
:10172000086B096B81A20FD00E2B000E0F23180E31
:101730000E1901E10F5102E10E6B0F6B640EE66EA4
:1017400006EC1BF0E55281A415D07CEC12F00101EF
:10175000102B000E11233C0E101901E1115105E16F
:10176000106B116B0E2B000E0F23010EE66E06ECB4
:101770001BF0E55281A85AD07CEC12F0640EE66EA4
:1017800006EC1BF0E552940E146E040E156E166AEC
:1017900014C0E6FF15C0E6FF16C0E6FF9B0EE66E1E
:1017A000000EE66EB7EC02F0176E050EE15E175004
:1017B000800EE66EE66AE66A2FEC04F0E552E5522A
:1017C000E5529B0EE66E000EE66E04EC05F0E55267
:1017D000E5527A0E146E040E156E166A14C0E6FFFA
:1017E00015C0E6FF16C0E6FF9B0EE66E000EE66E25
:1017F000B7EC02F0176E050EE15E1750C00EE66EF4
:10180000E66AE66A2FEC04F0E552E552E5529B0EDB
:10181000E66E000EE66E04EC05F0E552E5520101BD
:101820001E6B1F6B1C6B1D6B19EC08F016D712009A
:101830000101010E1E1901E11F5101E05ED2640E8B
:10184000146E040E156E166A14C0E6FF15C0E6FF8E
:1018500016C0E6FF9B0EE66E000EE66EB7EC02F0D9
:10186000176E050EE15E1750800EE66EE66AE66AB8
:101870002FEC04F0E552E552E5529B0EE66E000EA9
:10188000E66E04EC05F0E552E55220C1E6FF21C109
:10189000E6FF510E146E040E156E166A14C0E6FFB4
:1018A00015C0E6FF16C0E6FF9B0EE66E000EE66E64
:1018B000B7EC02F0176E070EE15E1750C00EE66E31
:1018C000E66AE66A2FEC04F0E552E552E5529B0E1B
:1018D000E66E000EE66E04EC05F0E552E552640E8D
:1018E000E66E06EC1BF0E55281A211D00101202B1F
:1018F000000E2123060E201901E1215103E1010E02
:10190000206F216B640EE66E06EC1BF0E5520101C0
:10191000010E201901E121515BE18150080B58E0D3
:101920007CEC12F03B0E146E040E156E166A14C099
:10193000E6FF15C0E6FF16C0E6FF9B0EE66E000E42
:10194000E66EB7EC02F0176E050EE15E1750800EE2
:10195000E66EE66AE66A2FEC04F0E552E552E552DF
:101960009B0EE66E000EE66E04EC05F0E552E552C5
:10197000250E146E040E156E166A14C0E6FF15C00F
:10198000E6FF16C0E6FF9B0EE66E000EE66EB7ECB5
:1019900002F0176E050EE15E1750C00EE66EE66AA5
:1019A000E66A2FEC04F0E552E552E5529B0EE66E36
:1019B000000EE66E04EC05F0E552E552320EE66EDE
:1019C00006EC1BF0E552010E01011E6F1F6B96D94C
:1019D0000101020E201901E121515BE18150080B48
:1019E00058E07CEC12F0160E146E040E156E166A9A
:1019F00014C0E6FF15C0E6FF16C0E6FF9B0EE66EBC
:101A0000000EE66EB7EC02F0176E050EE15E1750A1
:101A1000800EE66EE66AE66A2FEC04F0E552E552C7
:101A2000E5529B0EE66E000EE66E04EC05F0E55204
:101A3000E5520B0E146E040E156E166A14C0E6FF06
:101A400015C0E6FF16C0E6FF9B0EE66E000EE66EC2
:101A5000B7EC02F0176E050EE15E1750C00EE66E91
:101A6000E66AE66A2FEC04F0E552E552E5529B0E79
:101A7000E66E000EE66E04EC05F0E552E552320E1D
:101A8000E66E06EC1BF0E552010E01011E6F1F6BA6
:101A9000EED90101030E201901E121515BE18150D2
:101AA000080B58E07CEC12F0160E146E040E156E46
:101AB000166A14C0E6FF15C0E6FF16C0E6FF9B0ECF
:101AC000E66E000EE66EB7EC02F0176E050EE15EF4
:101AD0001750800EE66EE66AE66A2FEC04F0E552D7
:101AE000E552E5529B0EE66E000EE66E04EC05F044
:101AF000E552E552000E146E040E156E166A14C0FF
:101B0000E6FF15C0E6FF16C0E6FF9B0EE66E000E70
:101B1000E66EB7EC02F0176E050EE15E1750C00ED0
:101B2000E66EE66AE66A2FEC04F0E552E552E5520D
:101B30009B0EE66E000EE66E04EC05F0E552E552F3
:101B4000320EE66E06EC1BF0E552010E01011E6F2F
:101B50001F6B46DA0101040E201901E121515BE1FE
:101B60008150080B58E07CEC12F0160E146E040E37
:101B7000156E166A14C0E6FF15C0E6FF16C0E6FF34
:101B80009B0EE66E000EE66EB7EC02F0176E050EC9
:101B9000E15E1750800EE66EE66AE66A2FEC04F00E
:101BA000E552E552E5529B0EE66E000EE66E04EC41
:101BB00005F0E552E552F50E146E030E156E166A29
:101BC00014C0E6FF15C0E6FF16C0E6FF9B0EE66EEA
:101BD000000EE66EB7EC02F0176E050EE15E1750D0
:101BE000C00EE66EE66AE66A2FEC04F0E552E552B6
:101BF000E5529B0EE66E000EE66E04EC05F0E55233
:101C0000E552640EE66E06EC1BF0E552010E010192
:101C10001E6F1F6B9FDA0101050E201901E1215192
:101C20005BE18150080B58E07CEC12F0160E146E4C
:101C3000040E156E166A14C0E6FF15C0E6FF16C046
:101C4000E6FF9B0EE66E000EE66EB7EC02F0176E36
:101C5000050EE15E1750800EE66EE66AE66A2FEC2E
:101C600004F0E552E552E5529B0EE66E000EE66E7C
:101C700004EC05F0E552E552EA0E146E030E156E03
:101C8000166A14C0E6FF15C0E6FF16C0E6FF9B0EFD
:101C9000E66E000EE66EB7EC02F0176E050EE15E22
:101CA0001750C00EE66EE66AE66A2FEC04F0E552C5
:101CB000E552E5529B0EE66E000EE66E04EC05F072
:101CC000E552E552640EE66E06EC1BF0E552010E9D
:101CD00001011E6F1F6BF8DA81A80ED0640EE66E4C
:101CE00006EC1BF0E55201011E511F1102E0000E2F
:101CF00001D0010E19EC08F09BD512000101010E74
:101D00001E1901E11F5101E0B1D03E513F1103E125
:101D100000014E0EAC6F81A604D001013E2B000ED7
:101D20003F230101010E3E1901E13F5103E1000192
:101D3000530EAC6F0101020E3E1901E13F5105E166
:101D40003E6B3F6B00014E0EAC6F640EE66E06EC10
:101D50001BF0E55281A210D001012A2B000E2B238B
:101D6000180E2A1901E12B5102E12A6B2B6B640E2C
:101D7000E66E06EC1BF0E55281A410D00101342B75
:101D8000000E35233C0E341901E1355102E1346B6C
:101D9000356B640EE66E06EC1BF0E55281A80DD0A3
:101DA000640EE66E06EC1BF0E55201011E511F1198
:101DB00002E0000E01D0010E3BDD0001AC51E66EE9
:101DC000E66AD70E146E030E156E166A14C0E6FF8F
:101DD00015C0E6FF16C0E6FF9B0EE66E000EE66E2F
:101DE000B7EC02F0176E070EE15E1750800EE66E3C
:101DF000E66AE66A2FEC04F0E552E552E5529B0EE6
:101E0000E66E000EE66E04EC05F0E552E55234C1D4
:101E1000E6FF35C1E6FF2AC1E6FF2BC1E6FFBE0E95
:101E2000146E030E156E166A14C0E6FF15C0E6FFA9
:101E300016C0E6FF9B0EE66E000EE66EB7EC02F0F3
:101E4000176E090EE15E1750C00EE66EE66AE66A8E
:101E50002FEC04F0E552E552E5529B0EE66E000EC3
:101E6000E66E04EC05F0E552E55248D71200010198
:101E7000010E1E1901E11F5101E0B1D04051411185
:101E800003E100014E0EAC6F81A604D00101402B8E
:101E9000000E41230101010E401901E1415103E10E
:101EA0000001530EAC6F0101020E401901E14151D6
:101EB00005E1406B416B00014E0EAC6F640EE66EA7
:101EC00006EC1BF0E55281A210D001012C2B000E74
:101ED0002D23180E2C1901E12D5102E12C6B2D6BD5
:101EE000640EE66E06EC1BF0E55281A410D00101F1
:101EF000362B000E37233C0E361901E1375102E133
:101F0000366B376B640EE66E06EC1BF0E55281A86B
:101F10000DD0640EE66E06EC1BF0E55201011E5179
:101F20001F1102E0000E01D0010E82DC0001AC5155
:101F3000E66EE66AD70E146E030E156E166A14C0AE
:101F4000E6FF15C0E6FF16C0E6FF9B0EE66E000E2C
:101F5000E66EB7EC02F0176E070EE15E1750800ECA
:101F6000E66EE66AE66A2FEC04F0E552E552E552C9
:101F70009B0EE66E000EE66E04EC05F0E552E552AF
:101F800036C1E6FF37C1E6FF2CC1E6FF2DC1E6FFF3
:101F9000BE0E146E030E156E166A14C0E6FF15C051
:101FA000E6FF16C0E6FF9B0EE66E000EE66EB7EC8F
:101FB00002F0176E090EE15E1750C00EE66EE66A7B
:101FC000E66A2FEC04F0E552E552E5529B0EE66E10
:101FD000000EE66E04EC05F0E552E55248D712001B
:101FE0000101010E1E1901E11F5101E0B2D0425161
:101FF000431103E100014E0EAC6F81A604D0010134
:10200000422B000E43230101010E421901E143510D
:1020100003E10001530EAC6F0101020E421901E110
:10202000435105E1426B436B00014E0EAC6F640EF1
:10203000E66E06EC1BF0E55281A210D001012E2BBA
:10204000000E2F23180E2E1901E12F5102E12E6BE5
:102050002F6B640EE66E06EC1BF0E55281A410D0E7
:102060000101382B000E39233C0E381901E139519A
:1020700002E1386B396B640EE66E06EC1BF0E5523C
:1020800081A80ED0640EE66E06EC1BF0E55201014D
:102090001E511F1102E0000E01D0010E18EC0CF0D1
:1020A0000001AC51E66EE66AD70E146E030E156E93
:1020B000166A14C0E6FF15C0E6FF16C0E6FF9B0EC9
:1020C000E66E000EE66EB7EC02F0176E070EE15EEC
:1020D0001750800EE66EE66AE66A2FEC04F0E552D1
:1020E000E552E5529B0EE66E000EE66E04EC05F03E
:1020F000E552E55238C1E6FF39C1E6FF2EC1E6FFE1
:102100002FC1E6FFBE0E146E030E156E166A14C0C4
:10211000E6FF15C0E6FF16C0E6FF9B0EE66E000E5A
:10212000E66EB7EC02F0176E090EE15E1750C00EB6
:10213000E66EE66AE66A2FEC04F0E552E552E552F7
:102140009B0EE66E000EE66E04EC05F0E552E552DD
:1021500047D712000101010E1E1901E11F5101E0D4
:10216000B2D04451451103E100014E0EAC6F81A67F
:1021700004D00101442B000E45230101010E441936
:1021800001E1455103E10001530EAC6F0101020E64
:10219000441901E1455105E1446B456B00014E0EC8
:1021A000AC6F640EE66E06EC1BF0E55281A210D017
:1021B0000101302B000E3123180E301901E131518D
:1021C00002E1306B316B640EE66E06EC1BF0E552FB
:1021D00081A410D001013A2B000E3B233C0E3A198A
:1021E00001E13B5102E13A6B3B6B640EE66E06EC9B
:1021F0001BF0E55281A80ED0640EE66E06EC1BF0D3
:10220000E55201011E511F1102E0000E01D0010E26
:1022100018EC0CF00001AC51E66EE66AD70E146EB5
:10222000030E156E166A14C0E6FF15C0E6FF16C051
:10223000E6FF9B0EE66E000EE66EB7EC02F0176E40
:10224000070EE15E1750800EE66EE66AE66A2FEC36
:1022500004F0E552E552E5529B0EE66E000EE66E86
:1022600004EC05F0E552E5523AC1E6FF3BC1E6FF5A
:1022700030C1E6FF31C1E6FFBE0E146E030E156ECF
:10228000166A14C0E6FF15C0E6FF16C0E6FF9B0EF7
:10229000E66E000EE66EB7EC02F0176E090EE15E18
:1022A0001750C00EE66EE66AE66A2FEC04F0E552BF
:1022B000E552E5529B0EE66E000EE66E04EC05F06C
:1022C000E552E55247D712000101010E1E1901E146
:1022D0001F5101E0B2D04651471103E100014E0EFB
:1022E000AC6F81A604D00101462B000E47230101EB
:1022F000010E461901E1475103E10001530EAC6F95
:102300000101020E461901E1475105E1466B476B99
:1023100000014E0EAC6F640EE66E06EC1BF0E5524B
:1023200081A210D00101322B000E3323180E321976
:1023300001E1335102E1326B336B640EE66E06EC61
:102340001BF0E55281A410D001013C2B000E3D236F
:102350003C0E3C1901E13D5102E13C6B3D6B640ECA
:10236000E66E06EC1BF0E55281A80ED0640EE66E18
:1023700006EC1BF0E55201011E511F1102E0000E98
:1023800001D0010E18EC0CF00001AC51E66EE66ACB
:10239000D70E146E030E156E166A14C0E6FF15C034
:1023A000E6FF16C0E6FF9B0EE66E000EE66EB7EC8B
:1023B00002F0176E070EE15E1750800EE66EE66AB9
:1023C000E66A2FEC04F0E552E552E5529B0EE66E0C
:1023D000000EE66E04EC05F0E552E5523CC1E6FF66
:1023E0003DC1E6FF32C1E6FF33C1E6FFBE0E146E0B
:1023F000030E156E166A14C0E6FF15C0E6FF16C080
:10240000E6FF9B0EE66E000EE66EB7EC02F0176E6E
:10241000090EE15E1750C00EE66EE66AE66A2FEC22
:1024200004F0E552E552E5529B0EE66E000EE66EB4
:1024300004EC05F0E552E55247D712000101010E08
:102440001E1901E11F514CE108C1E6FF09C1E6FF79
:1024500010C1E6FF11C1E6FF0EC1E6FF0FC1E6FFA6
:102460000D0E146E050E156E166A14C0E6FF15C02B
:10247000E6FF16C0E6FF9B0EE66E000EE66EB7ECBA
:1024800002F0176E0B0EE15E1750C00EE66EE66AA4
:10249000E66A2FEC04F0E552E552E5529B0EE66E3B
:1024A000000EE66E04EC05F0E552E552050E000163
:1024B000996F9A6B99510101085D00019A510101D0
:1024C000095902E282848296140E081901E1095129
:1024D00006E1829482961E6B1F6B19EC08F0AED752
:1024E00012008486010E000906E0FA0EE66E06EC84
:1024F0001BF0E552828012008150020B09E18150ED
:10250000040B06E18150080B03E18150100B07E03A
:102510008282640EE66E06EC1BF0E5528292120097
:1025200081B8B6D0870EE66E1DEC1BF0E552B3EC19
:102530001BF0FAEC03F0000901E0FBD7A1EC1BF063
:10254000F3CF14F0F4CF15F014C006F015C007F067
:1025500010EC00F005C0D2F006C0D3F007C0D4F0F4
:1025600008C0D5F0D2C005F0D3C006F0D4C007F043
:10257000D5C008F0E3EC00F006C0BEF007C0BFF025
:10258000BEC006F0BFC007F00EEC00F005C014F0AE
:1025900006C015F007C016F008C017F00A0E0A6E44
:1025A000280E0B6EA00E0C6E3B0E0D6E14C005F0C7
:1025B00015C006F016C007F017C008F076EC00F062
:1025C000E3EC00F006C093F007C094F093C026F14E
:1025D00094C027F1DF0EE66EE66A26C1E6FF27C14A
:1025E000E6FFA40E146E030E156E166A14C0E6FF05
:1025F00015C0E6FF16C0E6FF9B0EE66E000EE66E07
:10260000B7EC02F0176E090EE15E1750800EE66E11
:10261000E66AE66A2FEC04F0E552E552E5529B0EBD
:10262000E66E000EE66E04EC05F0E552E552960EFD
:10263000E66E06EC1BF0E5528A0E146E030E156E64
:10264000166A14C0E6FF15C0E6FF16C0E6FF9B0E33
:10265000E66E000EE66EB7EC02F0176E050EE15E58
:102660001750C10EE66EE66AE66A2FEC04F0E552FA
:10267000E552E5529B0EE66E000EE66E04EC05F0A8
:10268000E552E552640EE66E06EC1BF0E55248D7C3
:1026900012008F0EE66E1DEC1BF0E552B3EC1BF042
:1026A000FAEC03F0000901E0FBD7A1EC1BF0F3CF3B
:1026B00014F0F4CF15F014C006F015C007F010ECBC
:1026C00000F005C0D6F006C0D7F007C0D8F008C0AB
:1026D000D9F00A680B689F0E0C6E3B0E0D6ED6C0CB
:1026E00005F0D7C006F0D8C007F0D9C008F076ECE6
:1026F00000F005C014F006C015F007C016F008C0C1
:1027000017F00A6A0B6A400E0C6E410E0D6E14C073
:1027100005F015C006F016C007F017C008F023EC4E
:1027200000F005C0CEF006C0CFF007C0D0F008C062
:10273000D1F0CEC005F0CFC006F0D0C007F0D1C0B8
:1027400008F0E3EC00F006C0CAF007C0CBF00001CF
:10275000020ED880CA55000ECB5507E38288829AB4
:10276000640EE66E06EC1BF0E5520001020ED88006
:10277000CA55000ECB5507E28298829A640EE66E27
:1027800006EC1BF0E552120001011B0ED880265505
:10279000000E275506E2828C640EE66E06EC1BF0F6
:1027A000E55201011B0ED8802655000E275506E381
:1027B000829C640EE66E06EC1BF0E5521200DACF46
:1027C000E4FFE2CFDAFFE9CFE4FFEACFE4FFF6CFA0
:1027D000E4FFF7CFE4FFF5CFE4FFF3CFE4FFF4CF5E
:1027E000E4FFFACFE4FF00EE00F0140EE80403E388
:1027F000EECFE4FFFBD700EE14F0070EE80403E38E
:10280000EECFE4FFFBD7E652F2A40DD00101082B76
:10281000000E0923F2946A0EE66E670EE66ECEECA9
:102820001AF0E552E55201013C0E081901E1095187
:1028300005E1086B096B102B000E11233C0E1019DB
:1028400001E1115105E1106B116B0E2B000E0F23EE
:10285000180E0E1901E10F5102E10E6B0F6BE552DC
:1028600000EE1AF0070EE80403E3E5CFEDFFFBD717
:1028700000EE13F0140EE80403E3E5CFEDFFFBD701
:10288000E5CFFAFFE5CFF4FFE5CFF3FFE5CFF5FFA6
:10289000E5CFF7FFE5CFF6FFE5CFEAFFE5CFE9FFAC
:0628A000E5CFDAFF110094
:0A28A6008FEC19F0FB0EDBCFF3FFFF
:1028B000DB06F35000090AE0DDEC19F0FA0E48ECF3
:1028C0001AF0F3E1151CF1E1010E01D0000EBEEF8C
:1028D00019F08FEC19F03B0EE12402E3E168E652B7
:1028E000E16E010EDB6A020EDB6AF90EDBCFF6FF4A
:1028F000FA0EDBCFF7FFFB0EDBCFF8FF0800F55039
:10290000DF6EDF5002E1E2EF18F0250EDF5C02E03F
:10291000D5EF18F0030EDB6A040EDB6A050EDB6AE6
:10292000060EDB6A070EDB6AF7EC18F02D0EDF5C93
:102930000CE02B0EDF5C09E0200EDF5C06E0230ECE
:10294000DF5C03E0300EDF5C1AE1DF50300A14E098
:10295000130A0FE0030A0AE00B0A05E0060AE4E1A5
:10296000030EDB80E1D7030EDB82DED7030EDB84B0
:10297000DBD7030EDB86D8D7030EDB88D5D72A0E2C
:10298000DF5C1BE1F3EC18F041EC19F010E0030EF2
:10299000DB8006680768130EDBCF0BF0140EDBCF6D
:1029A0000CF098EC01F0040E04C0DBFF03D0130E12
:1029B0002AEC19F0F7EC18F00BD0090EDB6A98EC52
:1029C00019F003E00CEC1AF0FAD7090E2AEC19F012
:1029D000030EDBB0DB982E0EDF5C1BE1F7EC18F08A
:1029E0002A0EDF5C0BE1F3EC18F041EC19F003E187
:1029F000130E7CEC19F0F7EC18F00BD0090EDB6A23
:102A000098EC19F003E00CEC1AF0FAD7090E7CEC04
:102A100019F0680EDF5C07E1F7EC18F0680EDF5C78
:102A20001DE1030E18D0740EDF5C17E07A0EDF5C38
:102A300014E0480EDF5C06E0540EDF5C03E05A0E43
:102A4000DF5C02E1020E07D06C0EDF5C03E06A0E71
:102A5000DF5C04E1010ECFEC19F0C9DBDF506E0A38
:102A600001E17FD31E0A01E192D1200A01E18FD159
:102A70003F0A01E149D11A0A01E146D10D0A01E1FB
:102A800043D1200A01E140D13A0A01E13DD1200AB7
:102A900001E13AD1260A01E135D10D0A01E132D135
:102AA0001A0A01E1D9D0200A4AE0300A1FE0460A9A
:102AB0000EE0250A01E083D3D950F90FE96EFF0E2D
:102AC000DA20EA6E010EEE5E000EEE5AEE5ADDECF2
:102AD00019F0250EE66E95DB03E1151C01E169D3C3
:102AE000D9EC19F001E26BD3DB2A69D3080EDB6A5B
:102AF000040EDB50010806E2040EDB04A1EC19F021
:102B0000DB508BDB080EDB5009E0030EDB50010BC2
:102B100005E172DB01E04DD3080EDB6A64DBEFCF29
:102B2000DFFF51EC1AF003E1151C01E142D3D9ECAF
:102B300019F001E3DB2A60DB01E141D33AD3070E50
:102B4000DB5002080FE11DEC1AF0030EE4EC19F063
:102B50000E0EEECFDBFF0F0EEECFDBFF100EEECF33
:102B6000DBFF20D0F70EDBCF17F0F80EDBCF18F02D
:102B7000020E175E000E185AF70E17C0DBFFF80E94
:102B800018C0DBFF17C0E9FF18C0EAFFD4EC19F04A
:102B9000166A0E0E14C0DBFF0F0E15C0DBFF100E01
:102BA00016C0DBFF0E0EDBCFE6FF0F0EDBCFE6FF1E
:102BB000100EDBCFE6FFA9EC1AF0E552E552E55224
:102BC000130E05C0DBFF140E06C0DBFF060EDB5044
:102BD00005E0130E18EC1AF001E26ADB3CEC1AF087
:102BE00002E2130E37DBFFEC19F006E0040E18ECDE
:102BF0001AF002E2050E2EDB030EDBB005D0FCDA84
:102C000001E0D7D2080EDB6A090EDB6A0E0EDBCFBD
:102C1000F6FF0F0EDBCFF7FF100EDBCFF8FF08003B
:102C2000F550DF6EDF5014E042EC1AF011E251EC87
:102C30001AF003E1151C01E1BCD2BBDB01E3DB2A86
:102C4000090EDB2AD9500E0FE96E000ECBDBE7D759
:102C5000D3DA01E1B4D2ADD2C6DA110EEECFDBFF8A
:102C6000120EEDCFDBFF110EDBCFE6FF120EDBCF36
:102C7000E6FF9BEC1AF0E552E552130EF3CFDBFFB3
:102C8000140EF4CFDBFF060EDB5004E0130ED0DB96
:102C900001E20EDB3CEC1AF002E2130EDBDAAFDBF2
:102CA00005E0040EC5DB02E2050ED4DA030EDBB04C
:102CB00005D0A2DA01E07DD2080EDB6A090EDB6ADC
:102CC000110EDBCFE9FF120EDBCFEAFFEFCFDFFF04
:102CD000DF5014E0D7DB12E2E4DB03E1151C01E175
:102CE00068D267DB01E3DB2A090EDB2A110EDB2A3F
:102CF000DBCFE9FF120EE8E3DB2AE6D77DDA01E15C
:102D00005ED257D2030EDB8E070EDB0410E195DB9B
:102D1000040E5ADB0A0EEECFDBFF0B0EEECFDBFF0D
:102D20000C0EEECFDBFF0D0EEECFDBFF6CD0070EEF
:102D3000DB5003082CE1030EDBAE0DD0B2DA020E3D
:102D400076DAEFCF14F0156A166A176A14AE39D026
:102D50001568166835D0F70EDBCF15F0F80EDBCF0F
:102D600016F0020E155E000E165AF70E15C0DBFFA8
:102D7000F80E16C0DBFF15C0E9FF16C0EAFFEFCF63
:102D800014F00A0E14C0DBFF0B0EDB6A38D0070EFE
:102D9000DB50020809E1030EDBAE04D059DB16AEAE
:102DA00010D00ED055DB0DD0030EDBAE12D079DA89
:102DB000020E3DDAF9DA166A176A15AE02D0166805
:102DC0001768E2DA0C0E16C0DBFF0D0E17C0DBFF32
:102DD0001AD0F70EDBCF16F0F80EDBCF17F0020E8D
:102DE000165E000E175AF70E16C0DBFFF80E17C05E
:102DF000DBFF16C0E9FF17C0EAFFD6DAC5DA0C0E12
:102E0000DB6A0D0EDB6A060EDB5005E1010EF36E88
:102E1000050EF3CFDBFF150EDB6A160EDB6AD95009
:102E2000370F146E000EDA20156E390E14C0DBFF5A
:102E30003A0E15C0DBFF380EDB6A080EDB6A0A0E9D
:102E4000AEDADF50780A12E0200A10E0280A0CE01F
:102E5000200A0AE03F0A06E00D0A02E0200A08E123
:102E6000020E05D0080E03D0080EDF26100E97DAEA
:102E7000030EDBBE02D0DB92DB94DB50800B24E040
:102E80008ADAD890030EEB50000A08E6000EEE5CDA
:102E9000000EEE58000EEE58000EEE5815E213DA52
:102EA00009680A680B680C689EEC03F00A0E00C003
:102EB000DBFF0B0E01C0DBFF0C0E02C0DBFF0D0EB3
:102EC00003C0DBFF2D0E08D0030EDBA202D02B0EB9
:102ED00003D0DBA408D0200EF36E170EF3CFDBFF78
:102EE000150EDB2A02D0170EDB6A050EDB5003E15C
:102EF000B7D901E189D0540E146E370E156E000E4D
:102F0000166E070EDBCF17F0186A196A1A6A17C017
:102F100009F018C00AF019C00BF01AC00CF0D3D990
:102F2000D6EC03F014500024F36E15500120F46E1B
:102F300016500220F86EF4CFF7FFF3CFF6FF08002B
:102F4000090EF5CFDBFF580EDF5C0FE1610EF36E6B
:102F5000090E7BD90AE3200E146E090EDBCFE7FFC2
:102F60001450E75E090EE7CFDBFF070EDBCF14F04E
:102F7000156A166A176A0FDA14C009F015C00AF04C
:102F800016C00BF017C00CF0EECF04F0EECF05F03A
:102F9000EECF06F0EFCF07F0D6EC03F007C0EDFF61
:102FA00006C0EDFF05C0EDFF04C0EFFF390EDBCF1B
:102FB000E9FFDB063A0EDBCFEAFF01E2DB06090E92
:102FC000DBCFEFFF150EDB2A4BD995E1030EDBA615
:102FD0001DD06F0EDF5C06E1C1D918E3150EDB28AA
:102FE0005BDA14D0780EDF5C09E0580EDF5C06E097
:102FF000620EDF5C03E0420EDF5C08E1020EF36E5E
:10300000160EF3CFDBFF02D0150EDB6A030EDB508A
:10301000100B0EE0040EDBCF14F0050EDB50D88051
:10302000145406E2060EDB5003E1040EDB5034DAE2
:1030300095D90AE2050EDBCFE7FF150EDB50E75E00
:10304000050EE7CFDBFF02D0050EDB6A040EDBCFF7
:1030500014F0160E45D9D880145414E2160EDBCFA6
:10306000E6FF150EDBCFE6FF040EDBCFE6FF050E15
:10307000DB50E552E75CE552D880E754E552D88052
:10308000E7545FD9030EDB50010B0BE1080EDB5058
:1030900008E0B2D801E08DD0080EDB50BED8080E93
:1030A000DB6A170EDB5007E088D9170EF1D903E170
:1030B000151C01E17ED0160EDB5016E07ED9300ED5
:1030C000E66E9FD802E1151C74E077D9DFCFE6FFEA
:1030D0005CEC03F0E552E552E552F4CF15F0000147
:1030E000F31C02E1151C65E0050EDBCF14F0160E93
:1030F000DB50D880145409E2050EDBCFE7FF160E33
:10310000DB50E75E050EE7CFDBFF300EE66E050E07
:10311000CBD94FE1390EDB2ADBCFE9FF3A0E01E3D1
:10312000DB2ADBCFEAFF090EEFCFDBFFDB500EE03F
:1031300044D9090EADD902E1151C3BE0390EDB2A5A
:10314000DBCFE9FF3A0EEDE3DB2AEBD755D831E1CF
:10315000160EDBCFE6FF080EC3D8E552E7245DD894
:103160002ED0070EDB50030A1CE0010A14E0030A0C
:1031700007E07BD9DBCFEEFF020EDBCFEDFF1FD0E8
:10318000F5D8196A17AE02D0186819682CD8BCD8BF
:1031900019C0EEFF14D0EAD817BE186824D8B4D8E6
:1031A0000ED063D9DBCFEFFF0AD07BD905E1151C28
:1031B00003E1F368F46810D0FCD801E3DB2A79D985
:1031C0007EEF14F0010EDBCF14F0020EDBCF15F012
:1031D00014C0F3FF15C0F4FF3B0EE15C02E2E16AAC
:1031E000E552E16ECBD029D9020EE4EF19F061D996
:1031F0000800F550DF6E1200200EE66E080E54EF48
:103200001AF05CEC03F0E552E552E552F3CF14F00E
:10321000F4CF15F00001F31C1200146E156AD9509A
:10322000010F4DD91450EE261550ED221200185EF4
:10323000000E195AF70E18C0DBFFF80E19C0DBFF9D
:1032400018C0E9FF19C0EAFF1200DBCFF4FFF3500A
:10325000F45C1200DB50E76E040EE7CFDBFF1200D8
:103260000A0EDBCF14F00B0EDBCF15F00C0EDBCF0C
:1032700016F00D0EDBCF17F01450151016101710A6
:103280001200130EEECFDBFF140EEDCFDBFF130E9B
:10329000DBCF14F0140EDBCF15F00001800E1514F7
:1032A0001200F70EDBCF18F0F80EDBCF19F012008A
:1032B000050EDB50E66ED950130F01D9E552E750E9
:1032C000EE6EED6A12000A0EDBCF04F00B0EDBCFC0
:1032D00005F00C0EDBCF06F00D0EDBCF07F0120071
:1032E000DBCFE6FF150EDBCFE6FF050EDB50E55228
:1032F000E724E552E7241200DB50CED8010EF36E2E
:10330000060EF3CFDBFF1200EE50EFCFEAFFE96EBF
:1033100016C0EEFF17C0EEFF18C0EEFF1200D9CFA7
:10332000E6FFDACFE6FFE1CFD9FFE2CFDAFF120006
:10333000DFCFE6FFE66A4AEC1BF0E552E552F350B8
:103340001200E76E080EE7CFDBFF1200EECF14F09D
:10335000EECF15F0EFCF16F0176A1200050EDBCF97
:1033600014F0150EDB50D88014541200010EDBCF80
:1033700016F0020EDBCF17F0186A1200E552E5CF07
:10338000DAFFE7CFD9FF12000A0E14C0DBFF0B0EE5
:1033900015C0DBFF1200D9500A0F5FEF1AF0F36E71
:1033A000070EF3CFDBFF1200EECF14F0EFCF15F0D6
:1033B0001200010EDB2A020E1200FC0EDBCFE6FF2C
:1033C000FD0EDBCFE6FF1200145E000E155AF70E5D
:1033D00014C0DBFFF80E15C0DBFF14C0E9FF15C0F9
:1033E000EAFF1200DA20EA6EEF2AEECFF6FF000EB7
:1033F000EF22EECFF7FFEF22EECFF8FF1200040E20
:10340000DBCFE6FF130EDB50E552E75C9ADFDB50C3
:1034100004DF060EDB501200090EDB500A0DF350DC
:10342000DF24D00FE76E090EE7CFDBFFF7EF18F0D0
:10343000DB50F36E050E25EF19F0F70EDBCF14F01D
:10344000F80EDBCF15F01200DFCFE6FF01EF19F029
:1034500028DF030EECDEA6EF19F053EC14F0E55272
:10346000E552E552E55200091200BDDEEE50EFCF05
:10347000EAFFE96E010E1200130EDB50F36E040E2C
:1034800025EF19F0040EDB50F36E090E25EF19F04D
:10349000DBCFE6FF01EF19F0E76E050EE7CFDBFFAC
:1034A00012008BDF24EF1AF0DBCFE6FF86DF2DEF73
:1034B0001AF0D950F90FE96EFF0EF2EF19F0E96E2C
:0834C000000EDA20EA6E120092
:0834C800D9CFE6FFDACFE6FFE1
:1034D000E1CFD9FFE2CFDAFFC26AC06AFC0EDB405F
:1034E0007F0B3C0BC26EFC0EDB38F00B300B146E06
:1034F000FB0EDB500F0B1410C16EFD0EDB50040DE4
:10350000F350380B156EFD0EDB380F0B070B146EE6
:10351000FD0EDB50800B14101510C06EFC0EDBAEE0
:1035200003D09E9C9D8CF28CC280E552E5CFDAFFE1
:06353000E7CFD9FF1200F5
:0A353600FE0EE3CFE9FFFF0EE3CF26
:10354000EAFFF36AF46AEE5203E0F34AF42AFBD787
:103550001200FF0EE3CFF8FFE552FF0EE3CFF7FFB7
:10356000E552FF0EE3CFF6FFE552E66AE66AE66A49
:103570000900F55209E0FD0EE32A05E1FE0EE32AFB
:1035800002E1FF0EE32AF4D7FD0EE3CF05F0FE0EB5
:0C359000E3CF06F0FF0EE3CF07F01200BF
:04359C00D9CFE6FF9E
:1035A000DACFE6FFE1CFD9FFE2CFDAFFE652E6520B
:1035B000FC0EDBCFDEFFDBCFDDFF010EDB50D76E75
:1035C000DF50D66EE552E552E552E5CFDAFFE7CFA0
:0435D000D9FF12000D
:0C35D400D9CFE6FFDACFE6FFE1CFD9FF48
:1035E000E2CFDAFFFD0EDB507F0BD56ED76AD66ACD
:1035F000F294FD0EDBAE02D0F28A01D0F29AD58EA3
:0C360000E552E5CFDAFFE7CFD9FF12005A
:04360C00FF0EE3507A
:103610001C6EEF0E01D0F30EE76EE72E0DEF1BF0E0
:103620000C0E1B6EE76AE72E13EF1BF01B2E12EF3A
:0A3630001BF01C2E0BEF1BF0120024
:06363A00D9CFE6FFDACF54
:10364000E6FFE1CFD9FFE2CFDAFFC30EC214146E5A
:10365000FD0EDB407F0B3C0B1410C26EE552E5CF34
:08366000DAFFE7CFD9FF1200E9
:08366800036A026A100EE76E0E
:10367000D89006360736023603360B50025C0C50E3
:10368000035805E30B50025E0C50035A062AE72E3E
:04369000F0D712005D
:0C369400F36AF46AFF0EE124E96EFF0EF9
:1036A000E220EA6EED6607D02F0EEF6404D03A0EEA
:0836B000EF6001D0F32A1200C3
:0836B800000EF36E00EE00F0BD
:1036C000060E01D81200EA6002D0EE6AFCD7F35071
:0836D000E9601200EE6AFCD76C
:0836D80015EE00F025EE00F0F4
:1036E000F86A0F9C0DEC03F0FFEC03F019EC08F006
:0436F000FBD71200F2
:0C36F400FF0EE350ACBA04D0AF6AAB8EFE
:10370000AC8A949CACA2FED7AD6EF36EF46A120044
:10371000FF0EE3501C6E1B0E00D001D0200EE76E92
:0C372000E72EFED71C2EFAD700D01200B6
:04372C00FF0EE35059
:10373000E84E1200000000D000D000D0E82EFAD7EA
:02374000120075
:0E374200C450176E166AC3501610F36E17C0EF
:04375000F4FF120070
:0C37540030313233343536373839616299
:053760006364656600D2
:04376600C282120009
:06376A000E1D1F1F181FB9
:103770001F0E00000000000000000000000000001C
:103780000000000000000000000001000000000038
:103790000000000000000000000000000000000029
:1037A0000000000000000000000000000000000019
:0237B000000017
:020000040030CA
:0100010002FC
:010002001EDF
:010003001EDE
:010005008179
:010006008178
:00000001FF
