:020000040000FA
:0600000089EF1BF0120065
:020006001200E6
:06000800FCEF13F01200F2
:02000E000100EF
:0C001000AC370000800000005000000031
:04001C000F9E08D05B
:100020000F9E07AE05D0066C071EE86A07220F8EEA
:1000300007C001F006C000F0136A126A8E0E026E4D
:10004000036A2EEF01F00F6A6AEC01F082EC01F016
:100050000FB612EF01F00FA205D00FBA12EF01F0A8
:1000600019EF01F00FBA25EF01F00FA005D00FB87E
:1000700012EF01F025EF01F00FB819EF01F0036A5C
:100080007F0E0824026EE86A03220D50025EE86AC1
:10009000035A1A0E106E086A126A136A006A016A1D
:1000A0000A50055E0B50065A0C50075A000E085AAB
:1000B00009E70A5005260B5006220C500722000EB5
:1000C000082201D0128AD89005360636073608363F
:1000D000D8901236133600360136102EE1D707506D
:1000E00006100510D8A4128A2EEF01F00F6A6AECF0
:1000F00001F082EC01F00FB612EF01F00FA205D073
:100100000FB812EF01F019EF01F00FAA05D00FB0F0
:1001100012EF01F019EF01F00FB002D00FA802D0DA
:1001200025EF01F0036A0D500824026EE86A0322ED
:100130007E0E025EE86A035A126A136A006A016A56
:100140000C500702F4CF01F0F3CF00F00B50070280
:10015000F3501326F4500022000E01220C50060228
:10016000F3501326F4500022000E01220A50070219
:10017000F3501226F4501322000E002201220B50DD
:100180000602F3501226F4501322000E0022012220
:100190000C500502F3501226F4501322000E0022D8
:1001A00001220A500602F4501226000E13220022E9
:1001B00001220B500502F4501226000E13220022D9
:1001C00001222EEF01F00F6A6AEC01F00FB6EDEF9D
:1001D00000F00FA20ED00FB405D07F0E076EFF0EF9
:1001E000066E1FD0800E076E066A1BD0076A066A6D
:1001F00018D00FB0FBD78F0E0860EDD77E0E0864C5
:10020000F5D78E0E085C05E0D89007320632082A32
:10021000F8D70FA406D0066C071EE86A072207AEBF
:10022000E5D712007F0E086EFF0E076E066E056E94
:1002300012007F0E0FBEFF0E086E02D07F0E086EFA
:10024000800E076E066A056AF3D70FAE04D0800EE3
:10025000086E076AF7D7086A076AF4D701500010DA
:1002600013101210F8E003BEF0D701BE0CD00250FC
:100270000310EBE0D8901236133600360136020632
:10028000D8A00306F2D70350D4E10228D2E012AE80
:1002900011D07F0E121402E113A00CD0132AE86AC9
:1002A0000022012207E3D880013200321332022AF1
:1002B0000228BFE00250C9E013C005F000C006F0FC
:1002C0000134076E0230086E0732089E0FBE088E9A
:1002D00018EF01F00736083602E30F840F7E06E1BF
:1002E0000F80086A076A066A056A1200082803E098
:1002F000D88007321200D890073202E10F82120034
:100300000F8612000C360D3602E30F8C0F7E06E1CD
:100310000F880D6A0C6A0B6A0A6A12000D2803E046
:10032000D8800C321200D8900C32EAE10F8A120009
:1003300007C013F006C012F006500B02F4CF05F010
:10034000F3CF04F007500C02F4CF07F0F3CF06F020
:100350000B02F3500526F4500622E86A07221250D9
:100360000C02F3500526F4500622E86A07220CAE70
:10037000BEEF01F01250065E1350075A13AE000C88
:0A0380000B50065E0C50075A000CEB
:06038A002020436F6F6CA0
:100390006572204C696761646F2020202020202036
:1003A0002020202020202020202020200020205439
:1003B000454D502E415155412E2025326425634331
:1003C00020202020002020202020202025303264E2
:1003D0003A25303264202020202020202000204197
:1003E00074697661723A2025303163202020202004
:1003F00000202054696D657220352000202054694A
:100400006D657220342000202054696D65722033A0
:100410002000202054696D657220322000202020A9
:1004200050726F6772616D61722020002020202061
:1004300054696D657220312020202020202020204A
:10044000200020202050726F6772616D6172202041
:1004500020202020202020002020202054696D65AD
:10046000723A20253031642020200050726F67726C
:10047000616D6120416C696D652E20202020202057
:100480000020202020416A75737461646F20202051
:10049000202020202020202020200020202020524A
:1004A000656C6F67696F20202020202020202000AD
:1004B0002020202020253032643A2530326420204C
:1004C000202020202020002020486F7261202F2033
:1004D0004D696E75746F2020202020202020200080
:1004E0002020414C494D454E54414E444F20202040
:1004F00020202020002009416C696D656E746164C4
:100500006F72202020200020416A75737465204896
:100510006F72610020486F72613A20253032643A70
:10052000253032643A2530326420202000204151A9
:10053000554154524156454C20204D2531642020D0
:1005400020200020202020202020202020202020CB
:100550002020202020202020202000202020415169
:10056000554154524156454C202020202020202027
:050570000025730000EE
:0A057600D9CFE6FFDACFE6FFE1CFB0
:10058000D9FFE2CFDAFFE652E652E652E652D95000
:10059000F90F146EFF0EDA20156E020E14C0DBFF89
:1005A000030E15C0DBFF020EDBCFE6FF030EDBCF31
:1005B000E6FFF90EDBCFE6FFFA0EDBCFE6FFFB0E20
:1005C000DBCFE6FFD950FC0FE66EFF0EDA20E66EB9
:1005D00086EC14F0146E070EE15C02E2E16AE5526B
:1005E000E16E1450F3CFDEFFF4CFDDFFFC0EDBCF66
:1005F000E9FFFD0EDBCFEAFFEF6ADECF14F0DDCFBF
:1006000015F014C0F3FF15C0F4FF040EE15C02E224
:10061000E16AE552E16EE552E5CFDAFFE7CFD9FFB7
:020620001200C6
:0E0622000E0EF66E000EF76E000EF86E000162
:100630000900F550D56F0900F550D66F03E1D56775
:1006400001D03DD00900F550D06F0900F550D16FB1
:100650000900F550D26F09000900F550E96E090054
:10066000F550EA6E090009000900F550D36F090042
:10067000F550D46F09000900F6CFD7F0F7CFD8F0C6
:10068000F8CFD9F0D0C0F6FFD1C0F7FFD2C0F8FF45
:100690000001D35302E1D45307E00900F550EE6E98
:1006A000D307F8E2D407F9D7D7C0F6FFD8C0F7FFD1
:1006B000D9C0F8FF0001D507000ED65BBFD71200E6
:1006C000D9CFE6FFDACFE6FFE1CFD9FFE2CFDAFFFD
:1006D000FB0EDBCF14F0FC0EDBCF15F00001800E1B
:1006E00015141AE1FB0EDBCFE9FFFC0EDBCFEAFFAE
:1006F000EECFF3FFEDCFF4FFEE2A000EEF22F3CFA3
:10070000E9FFF4CFEAFFFD0EDBCFEFFFEF50156AF4
:10071000F36E15C0F4FF10D0FB0EDB50FE0806E1AF
:10072000FD0EDBCFE6FF97EC1BF005D0FD0EDBCF17
:10073000E6FF03EC00F0E552E552E5CFDAFFE7CF44
:04074000D9FF1200CB
:0C07440004500902F3CF00F0F4CF01F0E4
:100750000A02F3500126000EF420026E04500B0230
:10076000F3500226000EF420036E04500C02F350E6
:10077000032605500902F3500126F4500222000E10
:10078000032205500A02F3500226F45003220550BA
:100790000B02F350032606500902F3500226F450D0
:1007A000032206500A02F350032607500902F350B1
:0407B000032612000A
:0C07B400036A026A016A006A200EE76E08
:1007C000D89004360536063607360036013602362E
:1007D00003360950005C0A5001580B5002580C5067
:1007E000035809E30950005E0A50015A0B50025A9F
:0C07F0000C50035A042AE72EE4D7120034
:0407FC00C2821200A3
:0608000089EF1BF012005D
:0A080600D9CFE6FFE1CFD9FFFD0EC8
:10081000DB50010B02E0838801D08398FD0EDB5092
:10082000020B02E0838A01D0839AFD0EDB50040B99
:1008300002E0838C01D0839CFD0EDB50080B02E0AC
:10084000838E01D0839E83820000000000000000A0
:100850000000839200D0E552E7CFD9FF1200D9CF34
:10086000E6FFE1CFD9FFFE0EDB5002E1839401D019
:100870008384050EE66EA5EC1BF0E5528392FC0E18
:10088000DBCF14F0FD0EDBCF15F0040ED89015323F
:100890001432E804FBE114C0E6FF15C0E6FFB3DF45
:1008A000E552E5520F0EE76EFC0EDBCF14F0FD0EA5
:1008B000DBCF15F0E7501416156A14C0E6FF15C01B
:1008C000E6FFA1DFE552E552020EE66EA5EC1BF055
:1008D000E55200D0E552E7CFD9FF1200010EE66ED7
:1008E000E66AE66ABCDFE552E552E552010EE66EC5
:1008F00023EC1BF0E55200D0120083968398839A74
:10090000839C839E839483924B0EE66E23EC1BF0B4
:10091000E552030EE66EE66A76DFE552E552190E01
:10092000E66E23EC1BF0E552030EE66EE66A6BDF23
:10093000E552E552190EE66E23EC1BF0E552030E6C
:10094000E66EE66A60DFE552E552190EE66E23ECCC
:100950001BF0E552020EE66EE66A55DFE552E552FF
:10096000050EE66E23EC1BF0E552280EE66EE66AF5
:10097000E66A75DFE552E552E5520C0EE66EE66A70
:10098000E66A6DDFE552E552E552A8DF060EE66E37
:10099000E66AE66A64DFE552E552E55200D01200ED
:1009A000D9CFE6FFE1CFD9FFFE0EDBCFE6FFE66A47
:1009B000010EE66E54DFE552E552E552E552E7CF0F
:1009C000D9FF1200D9CFE6FFE1CFD9FFFD0EDBCF73
:1009D000F6FFFE0EDBCFF7FF0800F55011E0FD0E2D
:1009E000DBCFF6FFFE0EDBCFF7FF0800F550E66E1B
:1009F000D7DFE552FD0EDB2AFE0E01E3DB2AE6D748
:100A0000E552E7CFD9FF1200D9CFE6FFE1CFD9FFFA
:100A1000FD0EDBCFE9FFFE0EDBCFEAFFEF5010E06B
:100A2000FD0EDBCFE9FFFE0EDBCFEAFFEF50E66EF7
:100A3000B7DFE552FD0EDB2AFE0E01E3DB2AE8D725
:100A4000E552E7CFD9FF1200D9CFE6FFE1CFD9FFBA
:100A5000020EE126DE6ADD6ADECF14F0DDCF15F08E
:100A6000FD0EDBCF16F0FE0EDBCF17F01650145C38
:100A7000175015580AE2780EE66EA5EC1BF0E55209
:100A8000DF2A010E01E3DB2AE7D7020EE15C02E276
:100A9000E16AE552E16EE552E7CFD9FF1200D9CF06
:100AA000E6FFE1CFD9FF020EE126020E146E156AB1
:100AB000FD0EDBCF06F0FE0EDBCF07F014C00BF00F
:100AC00015C00CF051EC1BF0FD0E06C0DBFFFE0E56
:100AD00007C0DBFFDE6ADD6ADECF14F0DDCF15F084
:100AE000FD0EDBCF16F0FE0EDBCF17F01650145CB8
:100AF0001750155811E2000000000000000000002F
:100B00000000000000000000000000000000DF2ADC
:100B1000010E01E3DB2AE0D7020EE15C02E2E16AAA
:100B2000E552E16EE552E7CFD9FF1200D9CFE6FFDB
:100B3000E1CFD9FF020EE126DE6ADD6ADECF14F0D6
:100B4000DDCF15F0FD0EDBCF16F0FE0EDBCF17F07C
:100B50001650145C175015580FE2FA0EE66E23EC8F
:100B60001BF0E552FA0EE66E23EC1BF0E552DF2A8D
:100B7000010E01E3DB2AE2D7020EE15C02E2E16A48
:100B8000E552E16EE552E7CFD9FF1200D9CFE6FF7B
:100B9000E1CFD9FF1B0EE126D950080FE96EDACF5D
:100BA000EAFF200EEE6EEE6AEE6AEE6AEE6AEE6A1A
:100BB000EE6AEE6AEE6AEE6AEE6AEE6AEE6AEE6A75
:100BC000EE6AEE6AEE6AD950190FE96EDACFEAFFE3
:100BD000740EEE6E050EED6EFD0EDBCFE6FFFE0E23
:100BE000DBCFE6FFD950080FE66E000EDA20E66E86
:100BF000BBEC02F0E552E552E552E552D950080F40
:100C0000146EDACF15F0190E14C0DBFF1A0E15C0E2
:100C1000DBFFFC0EDB0403E1800EDE6EDD6AFC0E02
:100C2000DB50020803E1C00EDE6EDD6A100EF36ECB
:100C3000020EF3CFDBFF030EDB6A020EDBCF14F0F4
:100C4000030EDBCF15F00001800E15143CE1020EFF
:100C5000DBCF16F0030EDBCF17F0190EDB50162496
:100C6000146E1A0EDB501720156E14C0E6FF15C067
:100C7000E6FF710EE66E050EE66E000EE66E010EE4
:100C8000E66EBBEC02F0186E060EE15E1850DECF89
:100C9000E6FFDDCFE6FFE66AE2DDE552E552E5522A
:100CA000000EE66E010EE66EAFDEE552E552960EE0
:100CB000E66EE66AC9DEE552E552020EDB06030E79
:100CC00001E2DB06BAD7010EE66EE66A2FDFE552D7
:100CD000E5521B0EE15C02E2E16AE552E16EE5528B
:100CE000E7CFD9FF1200D9CFE6FFE1CFD9FF190E28
:100CF000E126D950060FE96EDACFEAFF200EEE6E3C
:100D0000EE6EEE6AEE6AEE6AEE6AEE6AEE6AEE6A1F
:100D1000EE6AEE6AEE6AEE6AEE6AEE6AEE6AEE6A13
:100D2000D950170FE96EDACFEAFF740EEE6E050E9A
:100D3000ED6EFD0EDBCFE6FFFE0EDBCFE6FFD950FA
:100D4000060FE66E000EDA20E66EBBEC02F0E5520E
:100D5000E552E552E552D950060F146EDACF15F080
:100D6000170E14C0DBFF180E15C0DBFFFC0EDB04F2
:100D70000EE1800EF36E020EF3CFDBFF030EDB6A93
:100D80008F0EF36E040EF3CFDBFF050EDB6AFC0E55
:100D9000DB5002080EE1C00EF36E020EF3CFDBFF54
:100DA000030EDB6ACF0EF36E040EF3CFDBFF050EEE
:100DB000DB6A040EDBCFDEFFDBCFDDFFDECF14F01E
:100DC000DDCF15F0020EDBCF16F0030EDBCF17F0F0
:100DD00015501718E8AE02D0173404D01650145C22
:100DE000175015582FE3170EDBCFE6FF180EDBCF99
:100DF000E6FF710EE66E050EE66E000EE66E010E63
:100E0000E66EBBEC02F0146E060EE15E1450DECF0F
:100E1000E6FFDDCFE6FFE66A22DDE552E552E55268
:100E2000000EE66E010EE66EEFDDE552E552960E1F
:100E3000E66EE66A09DEE552E552DF06010E01E2E2
:100E4000DB06BCD7010EE66EE66A70DEE552E552BF
:100E5000190EE15C02E2E16AE552E16EE552E7CF8C
:100E6000D9FF1200D9CFE6FFE1CFD9FFD950FD0F4E
:100E7000E96EFF0EDA20EA6EEE50ED1001E184908B
:100E8000D950FD0FE96EFF0EDA20EA6E010EEE1862
:100E900001E1ED5001E18480E552E7CFD9FF120076
:100EA000D9CFE6FFE1CFD9FF100EE1260E0EDF6E9F
:100EB000DE521D0EDD6E1F0EF36E020EF3CFDBFF52
:100EC0001F0EF36E030EF3CFDBFF180EF36E040E4E
:100ED000F3CFDBFF1F0EF36E050EF3CFDBFF1F0E0C
:100EE000F36E060EF3CFDBFF0E0EF36E070EF3CF9D
:100EF000DBFF040EF36E080EF3CFDBFF040EF36E80
:100F0000090EF3CFDBFF1F0EF36E0A0EF3CFDBFFEC
:100F10001F0EF36E0B0EF3CFDBFF040EF36E0C0E01
:100F2000F3CFDBFF040EF36E0D0EF3CFDBFF040EE9
:100F3000F36E0E0EF3CFDBFF040EF36E0F0EF3CF46
:100F4000DBFF83968394050EE66EE66AA8DDE55224
:100F5000E552400EE66EE66AE66A81DCE552E5524D
:100F6000E552050EE66EE66A9ADDE552E5528384A7
:100F7000050EE66EE66A68DDE552E5520101116B89
:100F8000126B123504E211510708000E12551EE3D0
:100F9000D9CF14F0DACF15F014501125E96E1550A1
:100FA0001221EA6EEF50E66EE66A010EE66E57DC3D
:100FB000E552E552E552050EE66EE66A45DDE5527C
:100FC000E5520101112B000E1223DBD7116B126BBE
:100FD000123504E211510708000E12551FE3D950D3
:100FE000080F146EDACF15F014501125E96E155064
:100FF0001221EA6EEF50E66EE66A010EE66E2FDC15
:10100000E552E552E552050EE66EE66A1DDDE55253
:10101000E5520101112B000E1223DAD7100EE15C0C
:1010200003E200D0E16AE552E16EE552E7CFD9FF75
:101030001200FD0EE66E040EE66ED30EE66E81EC37
:101040001AF0E552E552E552870EE66E3AEC1BF0D7
:10105000E552050EE66EB3EC1BF0E5528F0EE66E20
:101060003AEC1BF0E552050EE66EB3EC1BF0E552D0
:10107000806A816A826A836A846A896A8A6A8B6AF8
:101080008C6A8D6A030E926E1E0E936E946A956A38
:10109000966A0D0EC06EF28EF28EF29CF28CD08E9D
:1010A000F28AF294F184960EE66E07EC1BF0E5529C
:1010B0006A0EE66E670EE66EEBEC1AF0E552E5524C
:1010C0001CDC6AEC12F075EC12F05B0E146E050E6F
:1010D000156E166A14C0E6FF15C0E6FF16C0E6FFDF
:1010E0001B0EE66E010EE66EBBEC02F0176E050EEF
:1010F000E15E1750800EE66EE66AE66A2FEC04F0B9
:10110000E552E552E5521B0EE66E010EE66E7CDC02
:10111000E552E552430E146E050E156E166A14C0A4
:10112000E6FF15C0E6FF16C0E6FF1B0EE66E010ED9
:10113000E66EBBEC02F0176E050EE15E1750C00EB6
:10114000E66EE66AE66A2FEC04F0E552E552E552F7
:101150001B0EE66E010EE66E57DCE552E552FA0E06
:10116000E66E23EC1BF0E552FA0EE66E23EC1BF064
:10117000E552010E00019C6F9D6B818045EC13F0E0
:10118000C2EC13F09CC0E6FF9DC0E6FF2D0E146E6E
:10119000050E156E166A14C0E6FF15C0E6FF16C0F0
:1011A000E6FF1B0EE66E010EE66EBBEC02F0176E5C
:1011B000070EE15E1750800EE66EE66AE66A2FECD7
:1011C00004F0E552E552E5521B0EE66E010EE66EA6
:1011D0001BDCE552E55288C0E6FF89C0E6FF90C0FF
:1011E000E6FF91C0E6FF8EC0E6FF8FC0E6FF140E5B
:1011F000146E050E156E166A14C0E6FF15C0E6FFE4
:1012000016C0E6FF1B0EE66E010EE66EBBEC02F0AA
:10121000176E0B0EE15E1750C00EE66EE66AE66AC8
:101220002FEC04F0E552E552E5521B0EE66E010E7E
:10123000E66E04EC05F0E552E55281A213D075ECA0
:1012400012F0190EE66E23EC1BF0E55200019C2B08
:10125000000E9D23040E9C1901E19D5103E1010E36
:101260009C6F9D6B0001010E9C1901E19D513AE1BB
:101270008150080B37E075EC12F0320EE66E23EC6D
:101280001BF0E552070E146E050E156E166A14C09B
:10129000E6FF15C0E6FF16C0E6FF1B0EE66E010E68
:1012A000E66EBBEC02F0176E050EE15E1750800E85
:1012B000E66EE66AE66A2FEC04F0E552E552E55286
:1012C0001B0EE66E010EE66E04EC05F0E552E552EB
:1012D000320EE66E23EC1BF0E552010E00019E6F0C
:1012E0009F6BB5D90001020E9C1901E19D513AE1B5
:1012F0008150080B37E075EC12F0320EE66E23ECED
:101300001BF0E552F50E146E040E156E166A14C02D
:10131000E6FF15C0E6FF16C0E6FF1B0EE66E010EE7
:10132000E66EBBEC02F0176E050EE15E1750800E04
:10133000E66EE66AE66A2FEC04F0E552E552E55205
:101340001B0EE66E010EE66E04EC05F0E552E5526A
:10135000320EE66E23EC1BF0E552010E00019E6F8B
:101360009F6B5FDA0001030E9C1901E19D5105E1BD
:101370008150080B02E089EC12F000018E51AA198D
:1013800002E18F51AB1941E19051B41902E1915141
:10139000B5193BE1010EBE1901E1BF5136E1010E65
:1013A000881901E1895131E1E00E146E040E156EC9
:1013B000166A14C0E6FF15C0E6FF16C0E6FF1B0E56
:1013C000E66E010EE66EBBEC02F0176E050EE15EF6
:1013D0001750800EE66EE66AE66A2FEC04F0E552DE
:1013E000E552E5521B0EE66E010EE66E04EC05F0CA
:1013F000E552E552320EE66E23EC1BF0E552010E8B
:1014000000019E6F9F6B17EC12F000018E51AC191A
:1014100002E18F51AD1941E19051B61902E19151AC
:10142000B7193BE1010EC01901E1C15136E1010ECE
:10143000881901E1895131E1E00E146E040E156E38
:10144000166A14C0E6FF15C0E6FF16C0E6FF1B0EC5
:10145000E66E010EE66EBBEC02F0176E050EE15E65
:101460001750800EE66EE66AE66A2FEC04F0E5524D
:10147000E552E5521B0EE66E010EE66E04EC05F039
:10148000E552E552320EE66E23EC1BF0E552010EFA
:1014900000019E6F9F6B17EC12F000018E51AE1988
:1014A00002E18F51AF1941E19051B81902E1915118
:1014B000B9193BE1010EC21901E1C35136E1010E38
:1014C000881901E1895131E1E00E146E040E156EA8
:1014D000166A14C0E6FF15C0E6FF16C0E6FF1B0E35
:1014E000E66E010EE66EBBEC02F0176E050EE15ED5
:1014F0001750800EE66EE66AE66A2FEC04F0E552BD
:10150000E552E5521B0EE66E010EE66E04EC05F0A8
:10151000E552E552320EE66E23EC1BF0E552010E69
:1015200000019E6F9F6B17EC12F000018E51B019F5
:1015300002E18F51B11941E19051BA1902E1915183
:10154000BB193BE1040EBE1901E1BF5136E1010EAA
:10155000881901E1895131E1E00E146E040E156E17
:10156000166A14C0E6FF15C0E6FF16C0E6FF1B0EA4
:10157000E66E010EE66EBBEC02F0176E050EE15E44
:101580001750800EE66EE66AE66A2FEC04F0E5522C
:10159000E552E5521B0EE66E010EE66E04EC05F018
:1015A000E552E552320EE66E23EC1BF0E552010ED9
:1015B00000019E6F9F6B17EC12F000018E51B21963
:1015C00002E18F51B31941E19051BC1902E19151EF
:1015D000BD193BE1010EC61901E1C75136E1010E0B
:1015E000881901E1895131E1E00E146E040E156E87
:1015F000166A14C0E6FF15C0E6FF16C0E6FF1B0E14
:10160000E66E010EE66EBBEC02F0176E050EE15EB3
:101610001750800EE66EE66AE66A2FEC04F0E5529B
:10162000E552E5521B0EE66E010EE66E04EC05F087
:10163000E552E552320EE66E23EC1BF0E552010E48
:1016400000019E6F9F6B17EC12F098D512000001FD
:10165000010E9E1901E19F5101E0E2D075EC12F0FC
:10166000C70E146E040E156E166A14C0E6FF15C080
:10167000E6FF16C0E6FF1B0EE66E010EE66EBBEC43
:1016800002F0176E050EE15E1750800EE66EE66AF8
:10169000E66A2FEC04F0E552E552E5521B0EE66EC9
:1016A000010EE66E04EC05F0E552E55290C0E6FF4F
:1016B00091C0E6FF8EC0E6FF8FC0E6FFB00E146E4D
:1016C000040E156E166A14C0E6FF15C0E6FF16C0BC
:1016D000E6FF1B0EE66E010EE66EBBEC02F0176E27
:1016E000090EE15E1750C00EE66EE66AE66A2FEC60
:1016F00004F0E552E552E5521B0EE66E010EE66E71
:1017000004EC05F0E552E55200013C0E881901E1B8
:10171000895102E1886B896B81A20FD08E2B000E5C
:101720008F23180E8E1901E18F5102E18E6B8F6BA2
:10173000640EE66E23EC1BF0E55281A415D075EC27
:1017400012F00001902B000E91233C0E901901E144
:10175000915105E1906B916B8E2B000E8F23010E42
:10176000E66E23EC1BF0E55281A859D075EC12F01F
:10177000640EE66E23EC1BF0E5529B0E146E040E15
:10178000156E166A14C0E6FF15C0E6FF16C0E6FF28
:101790001B0EE66E010EE66EBBEC02F0176E050E38
:1017A000E15E1750800EE66EE66AE66A2FEC04F002
:1017B000E552E552E5521B0EE66E010EE66E04ECB4
:1017C00005F0E552E552810E146E040E156E166A90
:1017D00014C0E6FF15C0E6FF16C0E6FF1B0EE66E5E
:1017E000010EE66EBBEC02F0176E050EE15E1750BF
:1017F000C00EE66EE66AE66A2FEC04F0E552E552AA
:10180000E5521B0EE66E010EE66E04EC05F0E552A5
:10181000E55200019E6B9F6B9C6B9D6B0ADC17D79A
:1018200012000001010E9E1901E19F5101E05ED2FC
:101830006B0E146E040E156E166A14C0E6FF15C00A
:10184000E6FF16C0E6FF1B0EE66E010EE66EBBEC71
:1018500002F0176E050EE15E1750800EE66EE66A26
:10186000E66A2FEC04F0E552E552E5521B0EE66EF7
:10187000010EE66E04EC05F0E552E552A0C0E6FF6D
:10188000A1C0E6FF580E146E040E156E166A14C041
:10189000E6FF15C0E6FF16C0E6FF1B0EE66E010E62
:1018A000E66EBBEC02F0176E070EE15E1750C00E3D
:1018B000E66EE66AE66A2FEC04F0E552E552E55280
:1018C0001B0EE66E010EE66E04EC05F0E552E552E5
:1018D000640EE66E23EC1BF0E55281A211D00001EC
:1018E000A02B000EA123060EA01901E1A15103E1D6
:1018F000010EA06FA16B640EE66E23EC1BF0E552A7
:101900000001010EA01901E1A1515BE18150080B1A
:1019100058E075EC12F0420E146E040E156E166A45
:1019200014C0E6FF15C0E6FF16C0E6FF1B0EE66E0C
:10193000010EE66EBBEC02F0176E050EE15E17506D
:10194000800EE66EE66AE66A2FEC04F0E552E55298
:10195000E5521B0EE66E010EE66E04EC05F0E55254
:10196000E5522C0E146E040E156E166A14C0E6FFB6
:1019700015C0E6FF16C0E6FF1B0EE66E010EE66E12
:10198000BBEC02F0176E050EE15E1750C00EE66E5E
:10199000E66AE66A2FEC04F0E552E552E5521B0ECA
:1019A000E66E010EE66E04EC05F0E552E552320EED
:1019B000E66E23EC1BF0E552010E00019E6F9F6B5B
:1019C00096D90001020EA01901E1A1515BE18150FD
:1019D000080B58E075EC12F01D0E146E040E156E17
:1019E000166A14C0E6FF15C0E6FF16C0E6FF1B0E20
:1019F000E66E010EE66EBBEC02F0176E050EE15EC0
:101A00001750800EE66EE66AE66A2FEC04F0E552A7
:101A1000E552E5521B0EE66E010EE66E04EC05F093
:101A2000E552E552120E146E040E156E166A14C0BD
:101A3000E6FF15C0E6FF16C0E6FF1B0EE66E010EC0
:101A4000E66EBBEC02F0176E050EE15E1750C00E9D
:101A5000E66EE66AE66A2FEC04F0E552E552E552DE
:101A60001B0EE66E010EE66E04EC05F0E552E55243
:101A7000320EE66E23EC1BF0E552010E00019E6F64
:101A80009F6BEED90001030EA01901E1A1515BE1AA
:101A90008150080B58E075EC12F01D0E146E040E08
:101AA000156E166A14C0E6FF15C0E6FF16C0E6FF05
:101AB0001B0EE66E010EE66EBBEC02F0176E050E15
:101AC000E15E1750800EE66EE66AE66A2FEC04F0DF
:101AD000E552E552E5521B0EE66E010EE66E04EC91
:101AE00005F0E552E552070E146E040E156E166AE7
:101AF00014C0E6FF15C0E6FF16C0E6FF1B0EE66E3B
:101B0000010EE66EBBEC02F0176E050EE15E17509B
:101B1000C00EE66EE66AE66A2FEC04F0E552E55286
:101B2000E5521B0EE66E010EE66E04EC05F0E55282
:101B3000E552320EE66E23EC1BF0E552010E000179
:101B40009E6F9F6B46DA0001040EA01901E1A151BE
:101B50005BE18150080B58E075EC12F01D0E146E1D
:101B6000040E156E166A14C0E6FF15C0E6FF16C017
:101B7000E6FF1B0EE66E010EE66EBBEC02F0176E82
:101B8000050EE15E1750800EE66EE66AE66A2FECFF
:101B900004F0E552E552E5521B0EE66E010EE66ECC
:101BA00004EC05F0E552E552FC0E146E030E156EC2
:101BB000166A14C0E6FF15C0E6FF16C0E6FF1B0E4E
:101BC000E66E010EE66EBBEC02F0176E050EE15EEE
:101BD0001750C00EE66EE66AE66A2FEC04F0E55296
:101BE000E552E5521B0EE66E010EE66E04EC05F0C2
:101BF000E552E552640EE66E23EC1BF0E552010E51
:101C000000019E6F9F6B9FDA0001050EA01901E194
:101C1000A1515BE18150080B58E075EC12F01D0EEC
:101C2000146E040E156E166A14C0E6FF15C0E6FFAA
:101C300016C0E6FF1B0EE66E010EE66EBBEC02F070
:101C4000176E050EE15E1750800EE66EE66AE66AD4
:101C50002FEC04F0E552E552E5521B0EE66E010E44
:101C6000E66E04EC05F0E552E552F10E146E030E3B
:101C7000156E166A14C0E6FF15C0E6FF16C0E6FF33
:101C80001B0EE66E010EE66EBBEC02F0176E050E43
:101C9000E15E1750C00EE66EE66AE66A2FEC04F0CD
:101CA000E552E552E5521B0EE66E010EE66E04ECBF
:101CB00005F0E552E552640EE66E23EC1BF0E552AA
:101CC000010E00019E6F9F6BF8DA81A80ED0640EA2
:101CD000E66E23EC1BF0E55200019E519F1102E0DD
:101CE000000E01D0010E19EC08F09BD51200000186
:101CF000010E9E1901E19F5101E0B1D0BE51BF110B
:101D000003E101014E0E2C6F81A604D00001BE2B11
:101D1000000EBF230001010EBE1901E1BF5103E116
:101D20000101530E2C6F0001020EBE1901E1BF51DB
:101D300005E1BE6BBF6B01014E0E2C6F640EE66EAB
:101D400023EC1BF0E55281A210D00001AA2B000E5B
:101D5000AB23180EAA1901E1AB5102E1AA6BAB6BE0
:101D6000640EE66E23EC1BF0E55281A410D0000156
:101D7000B42B000EB5233C0EB41901E1B55102E1BC
:101D8000B46BB56B640EE66E23EC1BF0E55281A8D4
:101D90000DD0640EE66E23EC1BF0E55200019E515F
:101DA0009F1102E0000E01D0010E3BDD01012C511C
:101DB000E66EE66ADE0E146E030E156E166A14C029
:101DC000E6FF15C0E6FF16C0E6FF1B0EE66E010E2D
:101DD000E66EBBEC02F0176E070EE15E1750800E48
:101DE000E66EE66AE66A2FEC04F0E552E552E5524B
:101DF0001B0EE66E010EE66E04EC05F0E552E552B0
:101E0000B4C0E6FFB5C0E6FFAAC0E6FFABC0E6FF80
:101E1000C50E146E030E156E166A14C0E6FF15C0CB
:101E2000E6FF16C0E6FF1B0EE66E010EE66EBBEC8B
:101E300002F0176E090EE15E1750C00EE66EE66AFC
:101E4000E66A2FEC04F0E552E552E5521B0EE66E11
:101E5000010EE66E04EC05F0E552E55248D712009B
:101E60000001010E9E1901E19F5101E0B1D0C05166
:101E7000C11103E101014E0E2C6F81A604D00001B7
:101E8000C02B000EC1230001010EC01901E1C15198
:101E900003E10101530E2C6F0001020EC01901E194
:101EA000C15105E1C06BC16B01014E0E2C6F640E78
:101EB000E66E23EC1BF0E55281A210D00001AC2BA2
:101EC000000EAD23180EAC1901E1AD5102E1AC6B6F
:101ED000AD6B640EE66E23EC1BF0E55281A410D0CE
:101EE0000001B62B000EB7233C0EB61901E1B75125
:101EF00002E1B66BB76B640EE66E23EC1BF0E552A5
:101F000081A80DD0640EE66E23EC1BF0E5520001B3
:101F10009E519F1102E0000E01D0010E82DC0101F2
:101F20002C51E66EE66ADE0E146E030E156E166A0E
:101F300014C0E6FF15C0E6FF16C0E6FF1B0EE66EF6
:101F4000010EE66EBBEC02F0176E070EE15E175055
:101F5000800EE66EE66AE66A2FEC04F0E552E55282
:101F6000E5521B0EE66E010EE66E04EC05F0E5523E
:101F7000E552B6C0E6FFB7C0E6FFACC0E6FFADC0B5
:101F8000E6FFC50E146E030E156E166A14C0E6FF4A
:101F900015C0E6FF16C0E6FF1B0EE66E010EE66EEC
:101FA000BBEC02F0176E090EE15E1750C00EE66E34
:101FB000E66AE66A2FEC04F0E552E552E5521B0EA4
:101FC000E66E010EE66E04EC05F0E552E55248D7E8
:101FD00012000001010E9E1901E19F5101E0B2D0F3
:101FE000C251C31103E101014E0E2C6F81A604D032
:101FF0000001C22B000EC3230001010EC21901E132
:10200000C35103E10101530E2C6F0001020EC219EE
:1020100001E1C35105E1C26BC36B01014E0E2C6F90
:10202000640EE66E23EC1BF0E55281A210D0000195
:10203000AE2B000EAF23180EAE1901E1AF5102E135
:10204000AE6BAF6B640EE66E23EC1BF0E55281A421
:1020500010D00001B82B000EB9233C0EB81901E1D5
:10206000B95102E1B86BB96B640EE66E23EC1BF05C
:10207000E55281A80ED0640EE66E23EC1BF0E5520B
:1020800000019E519F1102E0000E01D0010E11ECE3
:102090000CF001012C51E66EE66ADE0E146E030EA2
:1020A000156E166A14C0E6FF15C0E6FF16C0E6FFFF
:1020B0001B0EE66E010EE66EBBEC02F0176E070E0D
:1020C000E15E1750800EE66EE66AE66A2FEC04F0D9
:1020D000E552E552E5521B0EE66E010EE66E04EC8B
:1020E00005F0E552E552B8C0E6FFB9C0E6FFAEC064
:1020F000E6FFAFC0E6FFC50E146E030E156E166A3E
:1021000014C0E6FF15C0E6FF16C0E6FF1B0EE66E24
:10211000010EE66EBBEC02F0176E090EE15E175081
:10212000C00EE66EE66AE66A2FEC04F0E552E55270
:10213000E5521B0EE66E010EE66E04EC05F0E5526C
:10214000E55247D712000001010E9E1901E19F518F
:1021500001E0B2D0C451C51103E101014E0E2C6F54
:1021600081A604D00001C42B000EC5230001010E7E
:10217000C41901E1C55103E10101530E2C6F0001A7
:10218000020EC41901E1C55105E1C46BC56B010123
:102190004E0E2C6F640EE66E23EC1BF0E55281A20E
:1021A00010D00001B02B000EB123180EB01901E1C0
:1021B000B15102E1B06BB16B640EE66E23EC1BF023
:1021C000E55281A410D00001BA2B000EBB233C0EB7
:1021D000BA1901E1BB5102E1BA6BBB6B640EE66E4A
:1021E00023EC1BF0E55281A80ED0640EE66E23ECC2
:1021F0001BF0E55200019E519F1102E0000E01D03C
:10220000010E11EC0CF001012C51E66EE66ADE0EB7
:10221000146E030E156E166A14C0E6FF15C0E6FFB5
:1022200016C0E6FF1B0EE66E010EE66EBBEC02F07A
:10223000176E070EE15E1750800EE66EE66AE66ADC
:102240002FEC04F0E552E552E5521B0EE66E010E4E
:10225000E66E04EC05F0E552E552BAC0E6FFBBC0FD
:10226000E6FFB0C0E6FFB1C0E6FFC50E146E030E78
:10227000156E166A14C0E6FF15C0E6FF16C0E6FF2D
:102280001B0EE66E010EE66EBBEC02F0176E090E39
:10229000E15E1750C00EE66EE66AE66A2FEC04F0C7
:1022A000E552E552E5521B0EE66E010EE66E04ECB9
:1022B00005F0E552E55247D712000001010E9E19C4
:1022C00001E19F5101E0B2D0C651C71103E1010104
:1022D0004E0E2C6F81A604D00001C62B000EC72322
:1022E0000001010EC61901E1C75103E10101530EBE
:1022F0002C6F0001020EC61901E1C75105E1C66B42
:10230000C76B01014E0E2C6F640EE66E23EC1BF0C2
:10231000E55281A210D00001B22B000EB323180E9B
:10232000B21901E1B35102E1B26BB36B640EE66E18
:1023300023EC1BF0E55281A410D00001BC2B000E51
:10234000BD233C0EBC1901E1BD5102E1BC6BBD6B6C
:10235000640EE66E23EC1BF0E55281A80ED0640EED
:10236000E66E23EC1BF0E55200019E519F1102E046
:10237000000E01D0010E11EC0CF001012C51E66EA3
:10238000E66ADE0E146E030E156E166A14C0E6FFC2
:1023900015C0E6FF16C0E6FF1B0EE66E010EE66EE8
:1023A000BBEC02F0176E070EE15E1750800EE66E72
:1023B000E66AE66A2FEC04F0E552E552E5521B0EA0
:1023C000E66E010EE66E04EC05F0E552E552BCC087
:1023D000E6FFBDC0E6FFB2C0E6FFB3C0E6FFC50E34
:1023E000146E030E156E166A14C0E6FF15C0E6FFE4
:1023F00016C0E6FF1B0EE66E010EE66EBBEC02F0A9
:10240000176E090EE15E1750C00EE66EE66AE66AC8
:102410002FEC04F0E552E552E5521B0EE66E010E7C
:10242000E66E04EC05F0E552E55247D712000001D4
:10243000010E9E1901E19F514CE188C0E6FF89C061
:10244000E6FF90C0E6FF91C0E6FF8EC0E6FF8FC0BA
:10245000E6FF140E146E050E156E166A14C0E6FF24
:1024600015C0E6FF16C0E6FF1B0EE66E010EE66E17
:10247000BBEC02F0176E0B0EE15E1750C00EE66E5D
:10248000E66AE66A2FEC04F0E552E552E5521B0ECF
:10249000E66E010EE66E04EC05F0E552E552020E22
:1024A0000101196F1A6B19510001885D01011A5160
:1024B0000001895902E282848296140E881901E192
:1024C000895106E1829482969E6B9F6B19EC08F00D
:1024D000AED712008486010E000906E0FA0EE66E01
:1024E00023EC1BF0E552828012008150020B09E1BF
:1024F0008150040B06E18150080B03E18150100B61
:1025000007E08282320EE66E23EC1BF0E5528292E7
:10251000120038D981B8B8D0870EE66E3AEC1BF0BD
:10252000E552FEEC03F0D0EC1BF0000901E0FBD714
:10253000BEEC1BF0F3CF13F1F4CF14F113C1A6F0EE
:1025400014C1A7F0070E0F0B000105E0D890A733C8
:10255000A633E806FBE1DF0EE66EE66AA6C0E6FFFC
:10256000A7C0E6FFAD0E146E030E156E166A14C0FA
:10257000E6FF15C0E6FF16C0E6FF1B0EE66E010E75
:10258000E66EBBEC02F0176E090EE15E1750800E8E
:10259000E66EE66AE66A2FEC04F0E552E552E55293
:1025A0001B0EE66E010EE66E04EC05F0E552E552F8
:1025B000050EE66EA5EC1BF0E55281A45ED0828C80
:1025C000DF0EE66EE66AA6C0E6FFA7C0E6FFAD0E28
:1025D000146E030E156E166A14C0E6FF15C0E6FFF2
:1025E00016C0E6FF1B0EE66E010EE66EBBEC02F0B7
:1025F000176E090EE15E1750800EE66EE66AE66A17
:102600002FEC04F0E552E552E5521B0EE66E010E8A
:10261000E66E04EC05F0E552E552050EE66EA5EC1B
:102620001BF0E5528A0E146E030E156E166A14C066
:10263000E6FF15C0E6FF16C0E6FF1B0EE66E010EB4
:10264000E66EBBEC02F0176E050EE15E1750C00E91
:10265000E66EE66AE66A2FEC04F0E552E552E552D2
:102660001B0EE66E010EE66E04EC05F0E552E55237
:10267000050EE66EA5EC1BF0E5528194000E0009F4
:1026800002E08194829C46D712008F0EE66E3AECEF
:102690001BF0E552FEEC03F0D0EC1BF0000901E06A
:1026A000FBD7BEEC1BF0F3CF4AF1F4CF4BF14AC19C
:1026B00006F04BC107F00EEC00F005C018F006C0A4
:1026C00019F007C01AF008C01BF0EC0E0A6E510E8C
:1026D0000B6E380E0C6E3D0E0D6E18C005F019C055
:1026E00006F01AC007F01BC008F076EC00F005C039
:1026F00014F006C015F007C016F008C017F00A6AFB
:102700000B6AF00E0C6E420E0D6E14C005F015C073
:1027100006F016C007F017C008F023EC00F0E3EC59
:1027200000F006C046F107C047F146C1CEF047C1F0
:10273000CFF0010E0F0B000105E0D890CF33CE3360
:10274000E806FBE1640EE66EB3EC1BF0E552000117
:10275000020ED880CE55000ECF5506E38288640E57
:10276000E66E23EC1BF0E5520001020ED880CE5538
:10277000000ECF5506E28298640EE66E23EC1BF045
:10278000E5521200870EE66E3AEC1BF0E552FEECC5
:1027900003F0D0EC1BF0000901E0FBD7BEEC1BF00E
:1027A000F3CF13F1F4CF14F113C1A6F014C1A7F0C5
:1027B000070E0F0B000105E0D890A733A633E806FB
:1027C000FBE100011B0ED880A655000EA75506E2BE
:1027D000828C640EE66E23EC1BF0E55200011B0EAA
:1027E000D880A655000EA75506E3829C640EE66EBF
:1027F00023EC1BF0E5521200DACFE4FFE2CFDAFF60
:10280000E9CFE4FFEACFE4FFF6CFE4FFF7CFE4FF40
:10281000F5CFE4FFF3CFE4FFF4CFE4FFFACFE4FF1A
:1028200000EE00F0140EE80403E3EECFE4FFFBD764
:1028300000EE14F0080EE80403E3EECFE4FFFBD74C
:10284000E652F2A40DD00001882B000E8923F294E9
:102850006A0EE66E670EE66EEBEC1AF0E552E55294
:1028600000013C0E881901E1895105E1886B896BF3
:10287000902B000E91233C0E901901E1915105E13E
:10288000906B916B8E2B000E8F23180E8E1901E129
:102890008F5102E18E6B8F6BE55200EE1BF0080E3C
:1028A000E80403E3E5CFEDFFFBD700EE13F0140ED1
:1028B000E80403E3E5CFEDFFFBD7E5CFFAFFE5CF73
:1028C000F4FFE5CFF3FFE5CFF5FFE5CFF7FFE5CF69
:1028D000F6FFE5CFEAFFE5CFE9FFE5CFDAFF11002C
:1028E000ACEC19F0FB0EDBCFF3FFDB06F350000975
:1028F0000AE0FAEC19F0FA0E65EC1AF0F3E1151C97
:10290000F1E1010E01D0000EDBEF19F0ACEC19F093
:102910003B0EE12402E3E168E652E16E010EDB6A60
:10292000020EDB6AF90EDBCFF6FFFA0EDBCFF7FF04
:10293000FB0EDBCFF8FF0800F550DF6EDF5002E141
:10294000FFEF18F0250EDF5C02E0F2EF18F0030E47
:10295000DB6A040EDB6A050EDB6A060EDB6A070E15
:10296000DB6A14EC19F02D0EDF5C0CE02B0EDF5C43
:1029700009E0200EDF5C06E0230EDF5C03E0300E92
:10298000DF5C1AE1DF50300A14E0130A0FE0030A9B
:102990000AE00B0A05E0060AE4E1030EDB80E1D75A
:1029A000030EDB82DED7030EDB84DBD7030EDB8670
:1029B000D8D7030EDB88D5D72A0EDF5C1BE110ECDD
:1029C00019F05EEC19F010E0030EDB800668076872
:1029D000130EDBCF0BF0140EDBCF0CF098EC01F0F4
:1029E000040E04C0DBFF03D0130E47EC19F014EC07
:1029F00019F00BD0090EDB6AB5EC19F003E029ECF5
:102A00001AF0FAD7090E47EC19F0030EDBB0DB9889
:102A10002E0EDF5C1BE114EC19F02A0EDF5C0BE1DB
:102A200010EC19F05EEC19F003E1130E99EC19F0BB
:102A300014EC19F00BD0090EDB6AB5EC19F003E0C9
:102A400029EC1AF0FAD7090E99EC19F0680EDF5C40
:102A500007E114EC19F0680EDF5C1DE1030E18D0DD
:102A6000740EDF5C17E07A0EDF5C14E0480EDF5C6A
:102A700006E0540EDF5C03E05A0EDF5C02E1020E5A
:102A800007D06C0EDF5C03E06A0EDF5C04E1010E30
:102A9000ECEC19F0C9DBDF506E0A01E17FD31E0AAE
:102AA00001E192D1200A01E18FD13F0A01E149D130
:102AB0001A0A01E146D10D0A01E143D1200A01E1E0
:102AC00040D13A0A01E13DD1200A01E13AD1260A7A
:102AD00001E135D10D0A01E132D11A0A01E1D9D063
:102AE000200A4AE0300A1FE0460A0EE0250A01E00B
:102AF00083D3D950F90FE96EFF0EDA20EA6E010E8A
:102B0000EE5E000EEE5AEE5AFAEC19F0250EE66E65
:102B100095DB03E1151C01E169D3F6EC19F001E244
:102B20006BD3DB2A69D3080EDB6A040EDB50010885
:102B300006E2040EDB04BEEC19F0DB508BDB080E62
:102B4000DB5009E0030EDB50010B05E172DB01E015
:102B50004DD3080EDB6A64DBEFCFDFFF6EEC1AF0BB
:102B600003E1151C01E142D3F6EC19F001E3DB2A85
:102B700060DB01E141D33AD3070EDB5002080FE1DD
:102B80003AEC1AF0030E01EC1AF00E0EEECFDBFF5A
:102B90000F0EEECFDBFF100EEECFDBFF20D0F70ED7
:102BA000DBCF17F0F80EDBCF18F0020E175E000E29
:102BB000185AF70E17C0DBFFF80E18C0DBFF17C05E
:102BC000E9FF18C0EAFFF1EC19F0166A0E0E14C006
:102BD000DBFF0F0E15C0DBFF100E16C0DBFF0E0E65
:102BE000DBCFE6FF0F0EDBCFE6FF100EDBCFE6FFFD
:102BF000C6EC1AF0E552E552E552130E05C0DBFFB4
:102C0000140E06C0DBFF060EDB5005E0130E35EC9C
:102C10001AF001E26ADB59EC1AF002E2130E37DB1C
:102C20001CEC1AF006E0040E35EC1AF002E2050E78
:102C30002EDB030EDBB005D0FCDA01E0D7D2080EA4
:102C4000DB6A090EDB6A0E0EDBCFF6FF0F0EDBCF61
:102C5000F7FF100EDBCFF8FF0800F550DF6EDF50F6
:102C600014E05FEC1AF011E26EEC1AF003E1151CAF
:102C700001E1BCD2BBDB01E3DB2A090EDB2AD95020
:102C80000E0FE96E000ECBDBE7D7D3DA01E1B4D249
:102C9000ADD2C6DA110EEECFDBFF120EEDCFDBFFA9
:102CA000110EDBCFE6FF120EDBCFE6FFB8EC1AF019
:102CB000E552E552130EF3CFDBFF140EF4CFDBFF2A
:102CC000060EDB5004E0130ED0DB01E20EDB59EC04
:102CD0001AF002E2130EDBDAAFDB05E0040EC5DB0F
:102CE00002E2050ED4DA030EDBB005D0A2DA01E071
:102CF0007DD2080EDB6A090EDB6A110EDBCFE9FF1D
:102D0000120EDBCFEAFFEFCFDFFFDF5014E0D7DB9F
:102D100012E2E4DB03E1151C01E168D267DB01E3A9
:102D2000DB2A090EDB2A110EDB2ADBCFE9FF120EAC
:102D3000E8E3DB2AE6D77DDA01E15ED257D2030E63
:102D4000DB8E070EDB0410E195DB040E5ADB0A0E66
:102D5000EECFDBFF0B0EEECFDBFF0C0EEECFDBFF7B
:102D60000D0EEECFDBFF6CD0070EDB5003082CE11D
:102D7000030EDBAE0DD0B2DA020E76DAEFCF14F02E
:102D8000156A166A176A14AE39D01568166835D0F8
:102D9000F70EDBCF15F0F80EDBCF16F0020E155E46
:102DA000000E165AF70E15C0DBFFF80E16C0DBFF3B
:102DB00015C0E9FF16C0EAFFEFCF14F00A0E14C0E9
:102DC000DBFF0B0EDB6A38D0070EDB50020809E18F
:102DD000030EDBAE04D059DB16AE10D00ED055DB9F
:102DE0000DD0030EDBAE12D079DA020E3DDAF9DA3D
:102DF000166A176A15AE02D016681768E2DA0C0E6A
:102E000016C0DBFF0D0E17C0DBFF1AD0F70EDBCFAD
:102E100016F0F80EDBCF17F0020E165E000E175AF2
:102E2000F70E16C0DBFFF80E17C0DBFF16C0E9FF78
:102E300017C0EAFFD6DAC5DA0C0EDB6A0D0EDB6AC4
:102E4000060EDB5005E1010EF36E050EF3CFDBFF3E
:102E5000150EDB6A160EDB6AD950370F146E000EA2
:102E6000DA20156E390E14C0DBFF3A0E15C0DBFFF9
:102E7000380EDB6A080EDB6A0A0EAEDADF50780A1B
:102E800012E0200A10E0280A0CE0200A0AE03F0ABB
:102E900006E00D0A02E0200A08E1020E05D0080E45
:102EA00003D0080EDF26100E97DA030EDBBE02D029
:102EB000DB92DB94DB50800B24E08ADAD890030E9F
:102EC000EB50000A08E6000EEE5C000EEE58000E15
:102ED000EE58000EEE5815E213DA09680A680B681E
:102EE0000C68A2EC03F00A0E00C0DBFF0B0E01C061
:102EF000DBFF0C0E02C0DBFF0D0E03C0DBFF2D0E4F
:102F000008D0030EDBA202D02B0E03D0DBA408D026
:102F1000200EF36E170EF3CFDBFF150EDB2A02D067
:102F2000170EDB6A050EDB5003E1B7D901E189D04A
:102F30008E0E146E370E156E000E166E070EDBCF5A
:102F400017F0186A196A1A6A17C009F018C00AF04F
:102F500019C00BF01AC00CF0D3D9DAEC03F01450FE
:102F60000024F36E15500120F46E16500220F86E06
:102F7000F4CFF7FFF3CFF6FF0800090EF5CFDBFF24
:102F8000580EDF5C0FE1610EF36E090E7BD90AE388
:102F9000200E146E090EDBCFE7FF1450E75E090E1A
:102FA000E7CFDBFF070EDBCF14F0156A166A176A4E
:102FB0000FDA14C009F015C00AF016C00BF017C0E4
:102FC0000CF0EECF04F0EECF05F0EECF06F0EFCF31
:102FD00007F0DAEC03F007C0EDFF06C0EDFF05C017
:102FE000EDFF04C0EFFF390EDBCFE9FFDB063A0E41
:102FF000DBCFEAFF01E2DB06090EDBCFEFFF150EA8
:10300000DB2A4BD995E1030EDBA61DD06F0EDF5CEA
:1030100006E1C1D918E3150EDB285BDA14D0780E6F
:10302000DF5C09E0580EDF5C06E0620EDF5C03E067
:10303000420EDF5C08E1020EF36E160EF3CFDBFFEB
:1030400002D0150EDB6A030EDB50100B0EE0040EEF
:10305000DBCF14F0050EDB50D880145406E2060EC8
:10306000DB5003E1040EDB5034DA95D90AE2050E99
:10307000DBCFE7FF150EDB50E75E050EE7CFDBFF8A
:1030800002D0050EDB6A040EDBCF14F0160E45D914
:10309000D880145414E2160EDBCFE6FF150EDBCFFA
:1030A000E6FF040EDBCFE6FF050EDB50E552E75CE2
:1030B000E552D880E754E552D880E7545FD9030E33
:1030C000DB50010B0BE1080EDB5008E0B2D801E049
:1030D0008DD0080EDB50BED8080EDB6A170EDB5011
:1030E00007E088D9170EF1D903E1151C01E17ED064
:1030F000160EDB5016E07ED9300EE66E9FD802E148
:10310000151C74E077D9DFCFE6FF60EC03F0E552E1
:10311000E552E552F4CF15F00001F31C02E1151C55
:1031200065E0050EDBCF14F0160EDB50D88014548A
:1031300009E2050EDBCFE7FF160EDB50E75E050E5A
:10314000E7CFDBFF300EE66E050ECBD94FE1390E2F
:10315000DB2ADBCFE9FF3A0E01E3DB2ADBCFEAFF14
:10316000090EEFCFDBFFDB500EE044D9090EADD9DD
:1031700002E1151C3BE0390EDB2ADBCFE9FF3A0EFA
:10318000EDE3DB2AEBD755D831E1160EDBCFE6FFB6
:10319000080EC3D8E552E7245DD82ED0070EDB50C9
:1031A000030A1CE0010A14E0030A07E07BD9DBCF25
:1031B000EEFF020EDBCFEDFF1FD0F5D8196A17AE78
:1031C00002D0186819682CD8BCD819C0EEFF14D0EA
:1031D000EAD817BE186824D8B4D80ED063D9DBCF8C
:1031E000EFFF0AD07BD905E1151C03E1F368F46811
:1031F00010D0FCD801E3DB2A79D99BEF14F0010E43
:10320000DBCF14F0020EDBCF15F014C0F3FF15C0B6
:10321000F4FF3B0EE15C02E2E16AE552E16ECBD0E5
:1032200029D9020E01EF1AF061D90800F550DF6EBE
:103230001200200EE66E080E71EF1AF060EC03F03B
:10324000E552E552E552F3CF14F0F4CF15F000014A
:10325000F31C1200146E156AD950010F4DD9145089
:10326000EE261550ED221200185E000E195AF70EC8
:1032700018C0DBFFF80E19C0DBFF18C0E9FF19C04A
:10328000EAFF1200DBCFF4FFF350F45C1200DB50D6
:10329000E76E040EE7CFDBFF12000A0EDBCF14F05F
:1032A0000B0EDBCF15F00C0EDBCF16F00D0EDBCFC7
:1032B00017F014501510161017101200130EEECF41
:1032C000DBFF140EEDCFDBFF130EDBCF14F0140E7B
:1032D000DBCF15F00001800E15141200F70EDBCFC6
:1032E00018F0F80EDBCF19F01200050EDB50E66E79
:1032F000D950130F01D9E552E750EE6EED6A120076
:103300000A0EDBCF04F00B0EDBCF05F00C0EDBCF8B
:1033100006F00D0EDBCF07F01200DBCFE6FF150E37
:10332000DBCFE6FF050EDB50E552E724E552E7244C
:103330001200DB50CED8010EF36E060EF3CFDBFF8A
:103340001200EE50EFCFEAFFE96E16C0EEFF17C095
:10335000EEFF18C0EEFF1200D9CFE6FFDACFE6FF8E
:10336000E1CFD9FFE2CFDAFF1200DFCFE6FFE66A56
:1033700067EC1BF0E552E552F3501200E76E080EC1
:10338000E7CFDBFF1200EECF14F0EECF15F0EFCF5A
:1033900016F0176A1200050EDBCF14F0150EDB5085
:1033A000D88014541200010EDBCF16F0020EDBCFD2
:1033B00017F0186A1200E552E5CFDAFFE7CFD9FF20
:1033C00012000A0E14C0DBFF0B0E15C0DBFF12004B
:1033D000D9500A0F7CEF1AF0F36E070EF3CFDBFF24
:1033E0001200EECF14F0EFCF15F01200010EDB2A21
:1033F000020E1200FC0EDBCFE6FFFD0EDBCFE6FF78
:103400001200145E000E155AF70E14C0DBFFF80E02
:1034100015C0DBFF14C0E9FF15C0EAFF1200DA2077
:10342000EA6EEF2AEECFF6FF000EEF22EECFF7FFA7
:10343000EF22EECFF8FF1200040EDBCFE6FF130EF3
:10344000DB50E552E75C9ADFDB5004DF060EDB5011
:103450001200090EDB500A0DF350DF24D00FE76E87
:10346000090EE7CFDBFF14EF19F0DB50F36E050E0A
:1034700042EF19F0F70EDBCF14F0F80EDBCF15F0AA
:103480001200DFCFE6FF1EEF19F028DF030EECDE9F
:10349000C3EF19F070EC14F0E552E552E552E55235
:1034A00000091200BDDEEE50EFCFEAFFE96E010E1B
:1034B0001200130EDB50F36E040E42EF19F0040EEF
:1034C000DB50F36E090E42EF19F0DBCFE6FF1EEF83
:1034D00019F0E76E050EE7CFDBFF12008BDF41EF3F
:1034E0001AF0DBCFE6FF86DF4AEF1AF0D950F90F6A
:1034F000E96EFF0E0FEF1AF0E96E000EDA20EA6EA9
:023500001200B7
:0E350200D9CFE6FFDACFE6FFE1CFD9FFE2CF67
:10351000DAFFC26AC06AFC0EDB407F0B3C0BC26E56
:10352000FC0EDB38F00B300B146EFB0EDB500F0B78
:103530001410C16EFD0EDB50040DF350380B156EE8
:10354000FD0EDB380F0B070B146EFD0EDB50800BEE
:1035500014101510C06EFC0EDBAE03D09E9C9D8C2B
:10356000F28CC280E552E5CFDAFFE7CFD9FF120037
:10357000FE0EE3CFE9FFFF0EE3CFEAFFF36AF46A42
:10358000EE5203E0F34AF42AFBD71200FF0EE3CF1A
:10359000F8FFE552FF0EE3CFF7FFE552FF0EE3CF52
:1035A000F6FFE552E66AE66AE66A0900F55209E0C6
:1035B000FD0EE32A05E1FE0EE32A02E1FF0EE32AF7
:1035C000F4D7FD0EE3CF05F0FE0EE3CF06F0FF0EBD
:0635D000E3CF07F012003A
:0A35D600D9CFE6FFDACFE6FFE1CF20
:1035E000D9FFE2CFDAFFE652E652FC0EDBCFDEFF78
:1035F000DBCFDDFF010EDB50D76EDF50D66EE5521C
:0E360000E552E552E5CFDAFFE7CFD9FF120021
:02360E00D9CF12
:10361000E6FFDACFE6FFE1CFD9FFE2CFDAFFFD0E1A
:10362000DB507F0BD56ED76AD66AF294FD0EDBAE07
:1036300002D0F28A01D0F29AD58EE552E5CFDAFFB8
:06364000E7CFD9FF1200E4
:0A364600FF0EE3501D6EEF0E01D0E1
:10365000F30EE76EE72E2AEF1BF00C0E1C6EE76AE6
:10366000E72E30EF1BF01C2E2FEF1BF01D2E28EF46
:043670001BF0120039
:0C367400D9CFE6FFDACFE6FFE1CFD9FFA7
:10368000E2CFDAFFC30EC214146EFD0EDB407F0BD7
:103690003C0B1410C26EE552E5CFDAFFE7CFD9FF3D
:0236A000120016
:0E36A200036A026A100EE76ED89006360736ED
:1036B000023603360B50025C0C50035805E30B50E6
:0E36C000025E0C50035A062AE72EF0D71200C5
:0236CE00F36A9D
:1036D000F46AFF0EE124E96EFF0EE220EA6EED6669
:1036E00007D02F0EEF6404D03A0EEF6001D0F32A1A
:0236F0001200C6
:0E36F200000EF36E00EE00F0060E01D812007E
:10370000EA6002D0EE6AFCD7F350E9601200EE6A7C
:02371000FCD7E4
:0E37120015EE00F025EE00F0F86A0F9C11ECA9
:0E37200003F0D5EC1BF019EC08F0FBD71200FB
:02372E00FF0E8C
:10373000E350ACBA04D0AF6AAB8EAC8A949CACA216
:0A374000FED7AD6EF36EF46A1200BE
:06374A00FF0EE3501D6EAE
:103750001B0E00D001D0200EE76EE72EFED71D2EE7
:06376000FAD700D01200B0
:0A376600FF0EE350E84E12000000D1
:0C37700000D000D000D0E82EFAD71200E4
:04377C00C450176EB0
:0E378000166AC3501610F36E17C0F4FF120045
:02378E003031D8
:0F37900032333435363738396162636465660029
:0A37A000C250020B01E0010E1200FE
:0237AA0012000B
:0437AC000E1D1F1FB0
:1037B000181F1F0E000000000000000000000000A5
:1037C00000000000000000000000000001000000F8
:1037D00000000000000000000000000000000000E9
:1037E00000000000000000000000000000000000D9
:0C37F000000000000000000000000000CD
:020000040030CA
:0100010002FC
:010002001EDF
:010003001EDE
:010005008179
:010006008178
:00000001FF
