:020000040000FA
:0600000025EF1BF01200C9
:020006001200E6
:060008004EEF13F01200A0
:02000E000100EF
:0C001000E6360000000100003A0000008D
:04001C000F9E08D05B
:100020000F9E07AE05D0066C071EE86A07220F8EEA
:1000300007C001F006C000F0136A126A8E0E026E4D
:10004000036A8CEF01F00F6AC8EC01F0E0EC01F0FC
:100050000FB670EF01F00FA205D00FBA70EF01F0EC
:1000600077EF01F00FBA83EF01F00FA005D00FB8C2
:1000700070EF01F083EF01F00FB877EF01F0036A42
:100080007F0E0824026EE86A03220D50025EE86AC1
:10009000035A1A0E106E086A126A136A006A016A1D
:1000A0000A50055E0B50065A0C50075A000E085AAB
:1000B00009E70A5005260B5006220C500722000EB5
:1000C000082201D0128AD89005360636073608363F
:1000D000D8901236133600360136102EE1D707506D
:1000E00006100510D8A4128A8CEF01F00F6AC8EC34
:1000F00001F0E0EC01F00FB670EF01F00FA205D0B7
:100100000FB870EF01F077EF01F00FAA05D00FB034
:1001100070EF01F077EF01F00FB002D00FA802D01E
:1001200083EF01F0036A0D500824026EE86A03228F
:100130007E0E025EE86A035A126A136A006A016A56
:100140000C500702F4CF01F0F3CF00F00B50070280
:10015000F3501326F4500022000E01220C50060228
:10016000F3501326F4500022000E01220A50070219
:10017000F3501226F4501322000E002201220B50DD
:100180000602F3501226F4501322000E0022012220
:100190000C500502F3501226F4501322000E0022D8
:1001A00001220A500602F4501226000E13220022E9
:1001B00001220B500502F4501226000E13220022D9
:1001C00001228CEF01F00F6AC8EC01F00FB6EDEFE1
:1001D00000F00FA20ED00FB405D07F0E076EFF0EF9
:1001E000066E1FD0800E076E066A1BD0076A066A6D
:1001F00018D00FB0FBD78F0E0860EDD77E0E0864C5
:10020000F5D78E0E085C05E0D89007320632082A32
:10021000F8D70FA406D0066C071EE86A072207AEBF
:10022000E5D712001BEC01F00FB6000C0FB0000C6C
:100230000FB4000C010C0F6AC8EC01F0E0EC01F007
:100240000FB612000FAE08D00FA004D00FA802D036
:100250000F8012000F9012000D50085C0BE10C5043
:10026000075C08E10B50065C05E10A50055C02E101
:100270000F801200D8A002D00F8E10D008500DC0F1
:1002800008F00D6E07500CC007F00C6E06500BC046
:1002900006F00B6E05500AC005F00A6E0D50085CA2
:1002A00010E0FF0F09E00F900FB403D00FAE0F84E2
:1002B00012000FAE0F9412000D2AD8900C320B32A0
:1002C0000A320A50055E0B50065A0C50075A07BEF8
:1002D000EAD7D890053606360736082EF8D7C8D79D
:1002E0007F0E086EFF0E076E066E056E12007F0E03
:1002F0000FBEFF0E086E02D07F0E086E800E076ED6
:10030000066A056AF3D70FAE04D0800E086E076A3E
:10031000F7D7086A076AF4D70150001013101210BB
:10032000F8E003BEF0D701BE0CD002500310EBE0A2
:10033000D89012361336003601360206D8A00306CE
:10034000F2D70350D4E10228D2E012AE11D07F0ED2
:10035000121402E113A00CD0132AE86A0022012231
:1003600007E3D880013200321332022A0228BFE0AC
:100370000250C9E013C005F000C006F00134076E5A
:100380000230086E0732089E0FBE088E76EF01F02D
:100390000736083602E30F840F7E06E10F80086AF5
:1003A000076A066A056A1200082803E0D880073247
:1003B0001200D890073202E10F8212000F8612005D
:1003C0000C360D3602E30F8C0F7E06E10F880D6AA6
:1003D0000C6A0B6A0A6A12000D2803E0D8800C32FE
:1003E0001200D8900C32EAE10F8A120007C013F015
:1003F00006C012F006500B02F4CF05F0F3CF04F064
:1004000007500C02F4CF07F0F3CF06F00B02F350C5
:100410000526F4500622E86A072212500C02F35017
:100420000526F4500622E86A07220CAE1CEF02F003
:100430001250065E1350075A13AE000C0B50065EA6
:060440000C50075A000CED
:0A044600202020202020202020206C
:1004500020202020202020202020202020202000BC
:1004600054454D502E415155412E3A253264256355
:1004700043090920202020002020202020202025A2
:100480003032643A25303264202020202020202081
:1004900000204174697661723A2025303163202052
:1004A00020202000202054696D6572203520002016
:1004B0002054696D657220342000202054696D65D8
:1004C0007220332000202054696D65722032200094
:1004D00020202050726F6772616D617220200020B1
:1004E00020202054696D657220312020202020209A
:1004F000202020200020202050726F6772616D61E3
:100500007220202020202020202000202020205485
:10051000696D65723A2025303164202020005072C8
:100520006F6772616D6120416C696D652E202020BE
:100530002020200020202020416A75737461646FA0
:1005400020202020202020202020202020002020CB
:10055000202052656C6F67696F20202020202020AA
:100560002020002020202020253032643A253032FF
:10057000642020202020202020002020486F72614D
:10058000202F204D696E75746F20202020202020A0
:100590002020002020414C494D454E54414E444FAF
:1005A00020202020202020002009416C696D656EEC
:1005B0007461646F72202020200020416A7573747A
:1005C0006520486F72610020486F72613A202530C3
:1005D00032643A253032643A2530326420202000DB
:1005E000204151554154524156454C20204D253112
:1005F0006420202020000954524156454C0909002E
:0C06000009415155410909002573000013
:04060C00D9CFE6FF5D
:10061000DACFE6FFE1CFD9FFE2CFDAFFE652E652CA
:10062000E652E652D950F90F146EFF0EDA20156E1D
:10063000020E14C0DBFF030E15C0DBFF020EDBCF82
:10064000E6FF030EDBCFE6FFF90EDBCFE6FFFA0E87
:10065000DBCFE6FFFB0EDBCFE6FFD950FC0FE66EEB
:10066000FF0EDA20E66ED8EC13F0146E070EE15C94
:1006700002E2E16AE552E16E1450F3CFDEFFF4CFFF
:10068000DDFFFC0EDBCFE9FFFD0EDBCFEAFFEF6AFB
:10069000DECF14F0DDCF15F014C0F3FF15C0F4FF6A
:1006A000040EE15C02E2E16AE552E16EE552E5CF5B
:0806B000DAFFE7CFD9FF1200C9
:0806B8000E0EF66E000EF76E47
:1006C000000EF86E00010900F550E56F0900F550C5
:1006D000E66F03E1E56701D03DD00900F550E06F1A
:1006E0000900F550E16F0900F550E26F09000900BB
:1006F000F550E96E0900F550EA6E0900090009009D
:10070000F550E36F0900F550E46F09000900F6CFDA
:10071000E7F0F7CFE8F0F8CFE9F0E0C0F6FFE1C08E
:10072000F7FFE2C0F8FF0001E35302E1E45307E002
:100730000900F550EE6EE307F8E2E407F9D7E7C0E9
:10074000F6FFE8C0F7FFE9C0F8FF0001E507000E7B
:06075000E65BBFD71200BA
:0A075600D9CFE6FFDACFE6FFE1CFCE
:10076000D9FFE2CFDAFFFB0EDBCF14F0FC0EDBCFBC
:1007700015F00001800E15141AE1FB0EDBCFE9FF26
:10078000FC0EDBCFEAFFEECFF3FFEDCFF4FFEE2A56
:10079000000EEF22F3CFE9FFF4CFEAFFFD0EDBCF2F
:1007A000EFFFEF50156AF36E15C0F4FF10D0FB0E8B
:1007B000DB50FE0806E1FD0EDBCFE6FF33EC1BF05D
:1007C00005D0FD0EDBCFE6FF03EC00F0E552E5526D
:0A07D000E5CFDAFFE7CFD9FF1200F2
:0607DA00F36AF46AFF0E51
:1007E000E124E96EFF0EE220EA6EED6607D02F0EDF
:0E07F000EF6404D03A0EEF6001D0F32A12003D
:0207FE001200E7
:0608000025EF1BF01200C1
:0A080600D9CFE6FFE1CFD9FFFD0EC8
:10081000DB50010B02E0838801D08398FD0EDB5092
:10082000020B02E0838A01D0839AFD0EDB50040B99
:1008300002E0838C01D0839CFD0EDB50080B02E0AC
:10084000838E01D0839E83820000000000000000A0
:100850000000839200D0E552E7CFD9FF1200D9CF34
:10086000E6FFE1CFD9FFFE0EDB5002E1839401D019
:100870008384050EE66E41EC1BF0E5528392FC0E7C
:10088000DBCF14F0FD0EDBCF15F0040ED89015323F
:100890001432E804FBE114C0E6FF15C0E6FFB3DF45
:1008A000E552E5520F0EE76EFC0EDBCF14F0FD0EA5
:1008B000DBCF15F0E7501416156A14C0E6FF15C01B
:1008C000E6FFA1DFE552E552020EE66E41EC1BF0B9
:1008D000E55200D0E552E7CFD9FF1200010EE66ED7
:1008E000E66AE66ABCDFE552E552E552010EE66EC5
:1008F000D1EC1AF0E55200D0120083968398839AC7
:10090000839C839E839483924B0EE66ED1EC1AF007
:10091000E552030EE66EE66A76DFE552E552190E01
:10092000E66ED1EC1AF0E552030EE66EE66A6BDF76
:10093000E552E552190EE66ED1EC1AF0E552030EBF
:10094000E66EE66A60DFE552E552190EE66ED1EC1E
:100950001AF0E552020EE66EE66A55DFE552E55200
:10096000050EE66ED1EC1AF0E552280EE66EE66A48
:10097000E66A75DFE552E552E5520C0EE66EE66A70
:10098000E66A6DDFE552E552E552A8DF060EE66E37
:10099000E66AE66A64DFE552E552E55200D01200ED
:1009A000D9CFE6FFE1CFD9FFFE0EDBCFE6FFE66A47
:1009B000010EE66E54DFE552E552E552E552E7CF0F
:1009C000D9FF1200D9CFE6FFE1CFD9FFFD0EDBCF73
:1009D000F6FFFE0EDBCFF7FF0800F55011E0FD0E2D
:1009E000DBCFF6FFFE0EDBCFF7FF0800F550E66E1B
:1009F000D7DFE552FD0EDB2AFE0E01E3DB2AE6D748
:100A0000E552E7CFD9FF1200D9CFE6FFE1CFD9FFFA
:100A1000FD0EDBCFE9FFFE0EDBCFEAFFEF5010E06B
:100A2000FD0EDBCFE9FFFE0EDBCFEAFFEF50E66EF7
:100A3000B7DFE552FD0EDB2AFE0E01E3DB2AE8D725
:100A4000E552E7CFD9FF1200D9CFE6FFE1CFD9FFBA
:100A5000020EE126DE6ADD6ADECF14F0DDCF15F08E
:100A6000FD0EDBCF16F0FE0EDBCF17F01650145C38
:100A7000175015580AE2780EE66E41EC1BF0E5526D
:100A8000DF2A010E01E3DB2AE7D7020EE15C02E276
:100A9000E16AE552E16EE552E7CFD9FF1200D9CF06
:100AA000E6FFE1CFD9FF020EE126020E146E156AB1
:100AB000FD0EDBCF06F0FE0EDBCF07F014C00BF00F
:100AC00015C00CF0FFEC1AF0FD0E06C0DBFFFE0EA9
:100AD00007C0DBFFDE6ADD6ADECF14F0DDCF15F084
:100AE000FD0EDBCF16F0FE0EDBCF17F01650145CB8
:100AF0001750155811E2000000000000000000002F
:100B00000000000000000000000000000000DF2ADC
:100B1000010E01E3DB2AE0D7020EE15C02E2E16AAA
:100B2000E552E16EE552E7CFD9FF1200D9CFE6FFDB
:100B3000E1CFD9FF020EE126DE6ADD6ADECF14F0D6
:100B4000DDCF15F0FD0EDBCF16F0FE0EDBCF17F07C
:100B50001650145C175015580FE2FA0EE66ED1ECE1
:100B60001AF0E552FA0EE66ED1EC1AF0E552DF2AE1
:100B7000010E01E3DB2AE2D7020EE15C02E2E16A48
:100B8000E552E16EE552E7CFD9FF1200D9CFE6FF7B
:100B9000E1CFD9FF1B0EE126D950080FE96EDACF5D
:100BA000EAFF200EEE6EEE6AEE6AEE6AEE6AEE6A1A
:100BB000EE6AEE6AEE6AEE6AEE6AEE6AEE6AEE6A75
:100BC000EE6AEE6AEE6AD950190FE96EDACFEAFFE3
:100BD0000B0EEE6E060EED6EFD0EDBCFE6FFFE0E8B
:100BE000DBCFE6FFD950080FE66E000EDA20E66E86
:100BF00006EC03F0E552E552E552E552D950080FF4
:100C0000146EDACF15F0190E14C0DBFF1A0E15C0E2
:100C1000DBFFFC0EDB0403E1800EDE6EDD6AFC0E02
:100C2000DB50020803E1C00EDE6EDD6A100EF36ECB
:100C3000020EF3CFDBFF030EDB6A020EDBCF14F0F4
:100C4000030EDBCF15F00001800E15143CE1020EFF
:100C5000DBCF16F0030EDBCF17F0190EDB50162496
:100C6000146E1A0EDB501720156E14C0E6FF15C067
:100C7000E6FF080EE66E060EE66E800EE66E000ECD
:100C8000E66E06EC03F0186E060EE15E1850DECF3D
:100C9000E6FFDDCFE6FFE66AE2DDE552E552E5522A
:100CA000800EE66E000EE66EAFDEE552E552960E61
:100CB000E66EE66AC9DEE552E552020EDB06030E79
:100CC00001E2DB06BAD7010EE66EE66A2FDFE552D7
:100CD000E5521B0EE15C02E2E16AE552E16EE5528B
:100CE000E7CFD9FF1200D9CFE6FFE1CFD9FF190E28
:100CF000E126D950060FE96EDACFEAFF200EEE6E3C
:100D0000EE6EEE6AEE6AEE6AEE6AEE6AEE6AEE6A1F
:100D1000EE6AEE6AEE6AEE6AEE6AEE6AEE6AEE6A13
:100D2000D950170FE96EDACFEAFF0B0EEE6E060E02
:100D3000ED6EFD0EDBCFE6FFFE0EDBCFE6FFD950FA
:100D4000060FE66E000EDA20E66E06EC03F0E552C2
:100D5000E552E552E552D950060F146EDACF15F080
:100D6000170E14C0DBFF180E15C0DBFFFC0EDB04F2
:100D70000EE1800EF36E020EF3CFDBFF030EDB6A93
:100D80008F0EF36E040EF3CFDBFF050EDB6AFC0E55
:100D9000DB5002080EE1C00EF36E020EF3CFDBFF54
:100DA000030EDB6ACF0EF36E040EF3CFDBFF050EEE
:100DB000DB6A040EDBCFDEFFDBCFDDFFDECF14F01E
:100DC000DDCF15F0020EDBCF16F0030EDBCF17F0F0
:100DD00015501718E8AE02D0173404D01650145C22
:100DE000175015582FE3170EDBCFE6FF180EDBCF99
:100DF000E6FF080EE66E060EE66E800EE66E000E4C
:100E0000E66E06EC03F0146E060EE15E1450DECFC3
:100E1000E6FFDDCFE6FFE66A22DDE552E552E55268
:100E2000800EE66E000EE66EEFDDE552E552960EA0
:100E3000E66EE66A09DEE552E552DF06010E01E2E2
:100E4000DB06BCD7010EE66EE66A70DEE552E552BF
:100E5000190EE15C02E2E16AE552E16EE552E7CF8C
:100E6000D9FF1200D9CFE6FFE1CFD9FFD950FD0F4E
:100E7000E96EFF0EDA20EA6EEE50ED1001E184908B
:100E8000D950FD0FE96EFF0EDA20EA6E010EEE1862
:100E900001E1ED5001E18480E552E7CFD9FF120076
:100EA000D9CFE6FFE1CFD9FF100EE1260E0EDF6E9F
:100EB000DE521D0EDD6E1F0EF36E020EF3CFDBFF52
:100EC0001F0EF36E030EF3CFDBFF180EF36E040E4E
:100ED000F3CFDBFF1F0EF36E050EF3CFDBFF1F0E0C
:100EE000F36E060EF3CFDBFF0E0EF36E070EF3CF9D
:100EF000DBFF040EF36E080EF3CFDBFF040EF36E80
:100F0000090EF3CFDBFF1F0EF36E0A0EF3CFDBFFEC
:100F10001F0EF36E0B0EF3CFDBFF040EF36E0C0E01
:100F2000F3CFDBFF040EF36E0D0EF3CFDBFF040EE9
:100F3000F36E0E0EF3CFDBFF040EF36E0F0EF3CF46
:100F4000DBFF83968394050EE66EE66AA8DDE55224
:100F5000E552400EE66EE66AE66A81DCE552E5524D
:100F6000E552050EE66EE66A9ADDE552E5528384A7
:100F7000050EE66EE66A68DDE552E5520001916B0A
:100F8000926B923504E291510708000E92551EE3D0
:100F9000D9CF14F0DACF15F014509125E96E155021
:100FA0009221EA6EEF50E66EE66A010EE66E57DCBD
:100FB000E552E552E552050EE66EE66A45DDE5527C
:100FC000E5520001912B000E9223DBD7916B926BBF
:100FD000923504E291510708000E92551FE3D95053
:100FE000080F146EDACF15F014509125E96E1550E4
:100FF0009221EA6EEF50E66EE66A010EE66E2FDC95
:10100000E552E552E552050EE66EE66A1DDDE55253
:10101000E5520001912B000E9223DAD7100EE15C0D
:1010200003E200D0E16AE552E16EE552E7CFD9FF75
:101030001200FE0EE66E040EE66ED30EE66E0BECAC
:101040001AF0E552E552E552870EE66EE8EC1AF02A
:10105000E552050EE66E4FEC1BF0E552806A816AA0
:10106000826A836A846A896A8A6A8B6A8C6A8D6AF0
:10107000010E926E1E0E936E946A956A966A0E0E1B
:10108000C16EF28EF28EF29CF28CD08EF28AF294C5
:10109000F184960EE66EB5EC1AF0E5526A0EE66E35
:1010A000670EE66E99EC1AF0E552E55226DC64EC28
:1010B00012F06FEC12F0000E146E060E156E166A2A
:1010C00014C0E6FF15C0E6FF16C0E6FFA90EE66EE7
:1010D000000EE66E06EC03F0176E050EE15E17508B
:1010E000800EE66EE66AE66A2FEC04F0E552E55201
:1010F000E552A90EE66E000EE66E86DCE552E5527C
:10110000F60E146E050E156E166A14C0E6FF15C0B5
:10111000E6FF16C0E6FFA90EE66E000EE66E06ECD0
:1011200003F0176E050EE15E1750C00EE66EE66A1C
:10113000E66A2FEC04F0E552E552E552A90EE66EA0
:10114000000EE66E61DCE552E552FA0EE66ED1EC79
:101150001AF0E552FA0EE66ED1EC1AF0E552010EE5
:1011600001011C6F1D6B8180828482961CC1E6FF89
:101170001DC1E6FFE00E146E050E156E166A14C052
:10118000E6FF15C0E6FF16C0E6FFA90EE66E000EEC
:10119000E66E06EC03F0176E070EE15E1750800E48
:1011A000E66EE66AE66A2FEC04F0E552E552E55297
:1011B000A90EE66E000EE66E27DCE552E55208C188
:1011C000E6FF09C1E6FF10C1E6FF11C1E6FF0EC14F
:1011D000E6FF0FC1E6FFC70E146E050E156E166A08
:1011E00014C0E6FF15C0E6FF16C0E6FFA90EE66EC6
:1011F000000EE66E06EC03F0176E0B0EE15E175064
:10120000C00EE66EE66AE66A2FEC04F0E552E5529F
:10121000E552A90EE66E000EE66E04EC05F0E5520E
:10122000E5520A6A0B6A400E0C6E0D6EDCC005F0CA
:10123000DDC006F0DEC007F0DFC008F012EC01F000
:10124000010A02E0828801D0829881A213D06FEC5B
:1012500012F0640EE66ED1EC1AF0E55201011C2B7F
:10126000000E1D23040E1C1901E11D5103E1010EA6
:101270001C6F1D6B0101010E1C1901E11D513AE1AA
:101280008150080B37E06FEC12F0640EE66ED1EC83
:101290001AF0E552BA0E146E050E156E166A14C0D9
:1012A000E6FF15C0E6FF16C0E6FFA90EE66E000ECB
:1012B000E66E06EC03F0176E050EE15E1750800E29
:1012C000E66EE66AE66A2FEC04F0E552E552E55276
:1012D000A90EE66E000EE66E04EC05F0E552E5524E
:1012E000640EE66ED1EC1AF0E552010E01011E6F9C
:1012F0001F6BBFD90101020E1C1901E11D513AE11A
:101300008150080B37E06FEC12F0640EE66ED1EC02
:101310001AF0E552A80E146E050E156E166A14C06A
:10132000E6FF15C0E6FF16C0E6FFA90EE66E000E4A
:10133000E66E06EC03F0176E050EE15E1750800EA8
:10134000E66EE66AE66A2FEC04F0E552E552E552F5
:10135000A90EE66E000EE66E04EC05F0E552E552CD
:10136000960EE66ED1EC1AF0E552010E01011E6FE9
:101370001F6B6ADA0101030E1C1901E11D5105E121
:101380008150080B02E083EC12F001010E51261986
:1013900002E10F51271943E11051301902E11151B7
:1013A00031193DE10001010E9D1901E19E5137E126
:1013B0000101010E081901E1095131E1930E146E8A
:1013C000050E156E166A14C0E6FF15C0E6FF16C0BE
:1013D000E6FFA90EE66E000EE66E06EC03F0176E51
:1013E000050EE15E1750800EE66EE66AE66A2FECA7
:1013F00004F0E552E552E552A90EE66E000EE66EE7
:1014000004EC05F0E552E552320EE66ED1EC1AF02E
:10141000E552010E01011E6F1F6B11EC12F001016C
:101420000E51281902E10F51291943E110513219C7
:1014300002E1115133193DE10001010E9F1901E153
:10144000A05137E10101010E081901E1095131E113
:10145000930E146E050E156E166A14C0E6FF15C0C5
:10146000E6FF16C0E6FFA90EE66E000EE66E06EC7D
:1014700003F0176E050EE15E1750800EE66EE66A09
:10148000E66A2FEC04F0E552E552E552A90EE66E4D
:10149000000EE66E04EC05F0E552E552320EE66E03
:1014A000D1EC1AF0E552010E01011E6F1F6B11EC19
:1014B00012F001010E512A1902E10F512B1943E1DB
:1014C0001051341902E1115135193DE10001010EAD
:1014D000A11901E1A25137E10101010E081901E151
:1014E000095131E1930E146E050E156E166A14C083
:1014F000E6FF15C0E6FF16C0E6FFA90EE66E000E79
:10150000E66E06EC03F0176E050EE15E1750800ED6
:10151000E66EE66AE66A2FEC04F0E552E552E55223
:10152000A90EE66E000EE66E04EC05F0E552E552FB
:10153000320EE66ED1EC1AF0E552010E01011E6F7B
:101540001F6B11EC12F001010E512C1902E10F5129
:101550002D1943E11051361902E1115137193DE1BE
:101560000001040E9D1901E19E5137E10101010EB8
:10157000081901E1095131E1930E146E050E156E43
:10158000166A14C0E6FF15C0E6FF16C0E6FFA90EF6
:10159000E66E000EE66E06EC03F0176E050EE15ED9
:1015A0001750800EE66EE66AE66A2FEC04F0E5520C
:1015B000E552E552A90EE66E000EE66E04EC05F06B
:1015C000E552E552320EE66ED1EC1AF0E552010E0C
:1015D00001011E6F1F6B11EC12F001010E512E194B
:1015E00002E10F512F1943E11051381902E1115155
:1015F00039193DE10001010EA51901E1A65137E1BC
:101600000101010E081901E1095131E1930E146E37
:10161000050E156E166A14C0E6FF15C0E6FF16C06B
:10162000E6FFA90EE66E000EE66E06EC03F0176EFE
:10163000050EE15E1750800EE66EE66AE66A2FEC54
:1016400004F0E552E552E552A90EE66E000EE66E94
:1016500004EC05F0E552E552320EE66ED1EC1AF0DC
:10166000E552010E01011E6F1F6B11EC12F07ED5C9
:1016700012000101010E1E1901E11F5101E0E3D02A
:101680006FEC12F07A0E146E050E156E166A14C009
:10169000E6FF15C0E6FF16C0E6FFA90EE66E000ED7
:1016A000E66E06EC03F0176E050EE15E1750800E35
:1016B000E66EE66AE66A2FEC04F0E552E552E55282
:1016C000A90EE66E000EE66E04EC05F0E552E5525A
:1016D00010C1E6FF11C1E6FF0EC1E6FF0FC1E6FF34
:1016E000630E146E050E156E166A14C0E6FF15C063
:1016F000E6FF16C0E6FFA90EE66E000EE66E06ECEB
:1017000003F0176E090EE15E1750C00EE66EE66A32
:10171000E66A2FEC04F0E552E552E552A90EE66EBA
:10172000000EE66E04EC05F0E552E55201013C0EB8
:10173000081901E1095102E1086B096B81A20FD080
:101740000E2B000E0F23180E0E1901E10F5102E1AE
:101750000E6B0F6B640EE66ED1EC1AF0E55281A4AD
:1017600015D06FEC12F00101102B000E11233C0E6E
:10177000101901E1115105E1106B116B0E2B000ED8
:101780000F23010EE66ED1EC1AF0E55281A85AD073
:101790006FEC12F0640EE66ED1EC1AF0E5524E0ECC
:1017A000146E050E156E166A14C0E6FF15C0E6FF2E
:1017B00016C0E6FFA90EE66E000EE66E06EC03F01C
:1017C000176E050EE15E1750800EE66EE66AE66A59
:1017D0002FEC04F0E552E552E552A90EE66E000E3C
:1017E000E66E04EC05F0E552E552340E146E050E7B
:1017F000156E166A14C0E6FF15C0E6FF16C0E6FFB8
:10180000A90EE66E000EE66E06EC03F0176E050EEE
:10181000E15E1750C00EE66EE66AE66A2FEC04F051
:10182000E552E552E552A90EE66E000EE66E04ECB6
:1018300005F0E552E55201011E6B1F6B1C6B1D6B21
:1018400019EC08F016D712000101010E1E1901E172
:101850001F5101E05ED21E0E146E050E156E166A43
:1018600014C0E6FF15C0E6FF16C0E6FFA90EE66E3F
:10187000000EE66E06EC03F0176E050EE15E1750E3
:10188000800EE66EE66AE66A2FEC04F0E552E55259
:10189000E552A90EE66E000EE66E04EC05F0E55288
:1018A000E55220C1E6FF21C1E6FF0B0E146E050EC6
:1018B000156E166A14C0E6FF15C0E6FF16C0E6FFF7
:1018C000A90EE66E000EE66E06EC03F0176E070E2C
:1018D000E15E1750C00EE66EE66AE66A2FEC04F091
:1018E000E552E552E552A90EE66E000EE66E04ECF6
:1018F00005F0E552E552640EE66ED1EC1AF0E552C1
:1019000081A211D00101202B000E2123060E2019E7
:1019100001E1215103E1010E206F216B640EE66E9F
:10192000D1EC1AF0E5520101010E201901E121511B
:101930005BE18150080B58E06FEC12F0F50E146E6D
:10194000040E156E166A14C0E6FF15C0E6FF16C039
:10195000E6FFA90EE66E000EE66E06EC03F0176ECB
:10196000050EE15E1750800EE66EE66AE66A2FEC21
:1019700004F0E552E552E552A90EE66E000EE66E61
:1019800004EC05F0E552E552DF0E146E040E156E00
:10199000166A14C0E6FF15C0E6FF16C0E6FFA90EE2
:1019A000E66E000EE66E06EC03F0176E050EE15EC5
:1019B0001750C00EE66EE66AE66A2FEC04F0E552B8
:1019C000E552E552A90EE66E000EE66E04EC05F057
:1019D000E552E552320EE66ED1EC1AF0E552010EF8
:1019E00001011E6F1F6B96D90101020E201901E142
:1019F00021515BE18150080B58E06FEC12F0D00EE2
:101A0000146E040E156E166A14C0E6FF15C0E6FFCC
:101A100016C0E6FFA90EE66E000EE66E06EC03F0B9
:101A2000176E050EE15E1750800EE66EE66AE66AF6
:101A30002FEC04F0E552E552E552A90EE66E000ED9
:101A4000E66E04EC05F0E552E552C50E146E040E88
:101A5000156E166A14C0E6FF15C0E6FF16C0E6FF55
:101A6000A90EE66E000EE66E06EC03F0176E050E8C
:101A7000E15E1750C00EE66EE66AE66A2FEC04F0EF
:101A8000E552E552E552A90EE66E000EE66E04EC54
:101A900005F0E552E552320EE66ED1EC1AF0E55251
:101AA000010E01011E6F1F6BE9D90101030E201900
:101AB00001E121515BE18150080B58E06FEC12F01D
:101AC000D00E146E040E156E166A14C0E6FF15C013
:101AD000E6FF16C0E6FFA90EE66E000EE66E06EC07
:101AE00003F0176E050EE15E1750800EE66EE66A93
:101AF000E66A2FEC04F0E552E552E552A90EE66ED7
:101B0000000EE66E04EC05F0E552E552BA0E146ED6
:101B1000040E156E166A14C0E6FF15C0E6FF16C067
:101B2000E6FFA90EE66E000EE66E06EC03F0176EF9
:101B3000050EE15E1750C00EE66EE66AE66A2FEC0F
:101B400004F0E552E552E552A90EE66E000EE66E8F
:101B500004EC05F0E552E552320EE66ED1EC1AF0D7
:101B6000E552010E01011E6F1F6B3CDA0101040EEC
:101B7000201901E121515BE18150080B58E06FEC25
:101B800012F0D00E146E040E156E166A14C0E6FF25
:101B900015C0E6FF16C0E6FFA90EE66E000EE66E63
:101BA00006EC03F0176E050EE15E1750800EE66E30
:101BB000E66AE66A2FEC04F0E552E552E552A90E1A
:101BC000E66E000EE66E04EC05F0E552E552AF0E4F
:101BD000146E040E156E166A14C0E6FF15C0E6FFFB
:101BE00016C0E6FFA90EE66E000EE66E06EC03F0E8
:101BF000176E050EE15E1750C00EE66EE66AE66AE5
:101C00002FEC04F0E552E552E552A90EE66E000E07
:101C1000E66E04EC05F0E552E552640EE66ED1EC9A
:101C20001AF0E552010E01011E6F1F6B90DA0101DF
:101C3000050E201901E121515BE18150080B58E0AC
:101C40006FEC12F0D00E146E040E156E166A14C0EE
:101C5000E6FF15C0E6FF16C0E6FFA90EE66E000E11
:101C6000E66E06EC03F0176E050EE15E1750800E6F
:101C7000E66EE66AE66A2FEC04F0E552E552E552BC
:101C8000A90EE66E000EE66E04EC05F0E552E55294
:101C9000A40E146E040E156E166A14C0E6FF15C06D
:101CA000E6FF16C0E6FFA90EE66E000EE66E06EC35
:101CB00003F0176E050EE15E1750C00EE66EE66A81
:101CC000E66A2FEC04F0E552E552E552A90EE66E05
:101CD000000EE66E04EC05F0E552E552640EE66E89
:101CE000D1EC1AF0E552010E01011E6F1F6BE4DA10
:101CF00081A80ED0640EE66ED1EC1AF0E552010117
:101D00001E511F1102E0000E01D0010E19EC08F067
:101D10009BD512000101010E1E1901E11F5101E0C6
:101D2000ACD000019D519E1102E14E0EBA6F81A60A
:101D300003D09D2B000E9E23010E9D1901E19E51A3
:101D400002E1530EBA6F020E9D1901E19E5104E1AA
:101D50009D6B9E6B4E0EBA6F640EE66ED1EC1AF060
:101D6000E55281A210D00101262B000E2723180E68
:101D7000261901E1275102E1266B276B640EE66EFE
:101D8000D1EC1AF0E55281A410D00101302B000EE5
:101D900031233C0E301901E1315102E1306B316BDE
:101DA000640EE66ED1EC1AF0E55281A80DD0640EF7
:101DB000E66ED1EC1AF0E55201011E511F1102E04E
:101DC000000E01D0010E40DD0001BA51E66EE66A58
:101DD000910E146E040E156E166A14C0E6FF15C03F
:101DE000E6FF16C0E6FFA90EE66E000EE66E06ECF4
:101DF00003F0176E070EE15E1750800EE66EE66A7E
:101E0000E66A2FEC04F0E552E552E552A90EE66EC3
:101E1000000EE66E04EC05F0E552E55230C1E6FF37
:101E200031C1E6FF26C1E6FF27C1E6FF780E146E3A
:101E3000040E156E166A14C0E6FF15C0E6FF16C044
:101E4000E6FFA90EE66E000EE66E06EC03F0176ED6
:101E5000090EE15E1750C00EE66EE66AE66A2FECE8
:101E600004F0E552E552E552A90EE66E000EE66E6C
:101E700004EC05F0E552E5524DD712000101010EC8
:101E80001E1901E11F5101E0ACD000019F51A011CA
:101E900002E14E0EBA6F81A603D09F2B000EA02345
:101EA000010E9F1901E1A05102E1530EBA6F020E1B
:101EB0009F1901E1A05104E19F6BA06B4E0EBA6F18
:101EC000640EE66ED1EC1AF0E55281A210D0010149
:101ED000282B000E2923180E281901E1295102E1AF
:101EE000286B296B640EE66ED1EC1AF0E55281A4E2
:101EF00010D00101322B000E33233C0E321901E1C8
:101F0000335102E1326B336B640EE66ED1EC1AF0A2
:101F1000E55281A80DD0640EE66ED1EC1AF0E552C0
:101F200001011E511F1102E0000E01D0010E8CDCD8
:101F30000001BA51E66EE66A910E146E040E156E3B
:101F4000166A14C0E6FF15C0E6FF16C0E6FFA90E2C
:101F5000E66E000EE66E06EC03F0176E070EE15E0D
:101F60001750800EE66EE66AE66A2FEC04F0E55242
:101F7000E552E552A90EE66E000EE66E04EC05F0A1
:101F8000E552E55232C1E6FF33C1E6FF28C1E6FF64
:101F900029C1E6FF780E146E040E156E166A14C081
:101FA000E6FF15C0E6FF16C0E6FFA90EE66E000EBE
:101FB000E66E06EC03F0176E090EE15E1750C00ED8
:101FC000E66EE66AE66A2FEC04F0E552E552E55269
:101FD000A90EE66E000EE66E04EC05F0E552E55241
:101FE0004DD712000101010E1E1901E11F5101E040
:101FF000ADD00001A151A21102E14E0EBA6F81A62F
:1020000003D0A12B000EA223010EA11901E1A251C0
:1020100002E1530EBA6F020EA11901E1A25104E1CF
:10202000A16BA26B4E0EBA6F640EE66ED1EC1AF085
:10203000E55281A210D001012A2B000E2B23180E8D
:102040002A1901E12B5102E12A6B2B6B640EE66E1B
:10205000D1EC1AF0E55281A410D00101342B000E0E
:1020600035233C0E341901E1355102E1346B356BF7
:10207000640EE66ED1EC1AF0E55281A80ED0640E23
:10208000E66ED1EC1AF0E55201011E511F1102E07B
:10209000000E01D0010E24EC0CF00001BA51E66EE6
:1020A000E66A910E146E040E156E166A14C0E6FFF1
:1020B00015C0E6FF16C0E6FFA90EE66E000EE66E3E
:1020C00006EC03F0176E070EE15E1750800EE66E09
:1020D000E66AE66A2FEC04F0E552E552E552A90EF5
:1020E000E66E000EE66E04EC05F0E552E55234C1F2
:1020F000E6FF35C1E6FF2AC1E6FF2BC1E6FF780EF9
:10210000146E040E156E166A14C0E6FF15C0E6FFC5
:1021100016C0E6FFA90EE66E000EE66E06EC03F0B2
:10212000176E090EE15E1750C00EE66EE66AE66AAB
:102130002FEC04F0E552E552E552A90EE66E000ED2
:10214000E66E04EC05F0E552E5524CD712000101B1
:10215000010E1E1901E11F5101E0ADD00001A35194
:10216000A41102E14E0EBA6F81A603D0A32B000E7C
:10217000A423010EA31901E1A45102E1530EBA6F89
:10218000020EA31901E1A45104E1A36BA46B4E0E4E
:10219000BA6F640EE66ED1EC1AF0E55281A210D04F
:1021A00001012C2B000E2D23180E2C1901E12D51AD
:1021B00002E12C6B2D6B640EE66ED1EC1AF0E55249
:1021C00081A410D00101362B000E37233C0E3619A6
:1021D00001E1375102E1366B376B640EE66ED1ECEC
:1021E0001AF0E55281A80ED0640EE66ED1EC1AF01A
:1021F000E55201011E511F1102E0000E01D0010E37
:1022000024EC0CF00001BA51E66EE66A910E146EF1
:10221000040E156E166A14C0E6FF15C0E6FF16C060
:10222000E6FFA90EE66E000EE66E06EC03F0176EF2
:10223000070EE15E1750800EE66EE66AE66A2FEC46
:1022400004F0E552E552E552A90EE66E000EE66E88
:1022500004EC05F0E552E55236C1E6FF37C1E6FF72
:102260002CC1E6FF2DC1E6FF780E146E040E156E2C
:10227000166A14C0E6FF15C0E6FF16C0E6FFA90EF9
:10228000E66E000EE66E06EC03F0176E090EE15ED8
:102290001750C00EE66EE66AE66A2FEC04F0E552CF
:1022A000E552E552A90EE66E000EE66E04EC05F06E
:1022B000E552E5524CD712000101010E1E1901E151
:1022C0001F5101E0ADD00001A551A61102E14E0E53
:1022D000BA6F81A603D0A52B000EA623010EA51967
:1022E00001E1A65102E1530EBA6F020EA51901E1F8
:1022F000A65104E1A56BA66B4E0EBA6F640EE66E96
:10230000D1EC1AF0E55281A210D001012E2B000E63
:102310002F23180E2E1901E12F5102E12E6B2F6B86
:10232000640EE66ED1EC1AF0E55281A410D00101E2
:10233000382B000E39233C0E381901E1395102E1E6
:10234000386B396B640EE66ED1EC1AF0E55281A859
:102350000ED0640EE66ED1EC1AF0E55201011E516A
:102360001F1102E0000E01D0010E24EC0CF0000160
:10237000BA51E66EE66A910E146E040E156E166A78
:1023800014C0E6FF15C0E6FF16C0E6FFA90EE66E14
:10239000000EE66E06EC03F0176E070EE15E1750B6
:1023A000800EE66EE66AE66A2FEC04F0E552E5522E
:1023B000E552A90EE66E000EE66E04EC05F0E5525D
:1023C000E55238C1E6FF39C1E6FF2EC1E6FF2FC155
:1023D000E6FF780E146E040E156E166A14C0E6FF42
:1023E00015C0E6FF16C0E6FFA90EE66E000EE66E0B
:1023F00006EC03F0176E090EE15E1750C00EE66E94
:10240000E66AE66A2FEC04F0E552E552E552A90EC1
:10241000E66E000EE66E04EC05F0E552E5524CD790
:1024200012000101010E1E1901E11F514CE108C10A
:10243000E6FF09C1E6FF10C1E6FF11C1E6FF0EC1CC
:10244000E6FF0FC1E6FFC70E146E050E156E166A85
:1024500014C0E6FF15C0E6FF16C0E6FFA90EE66E43
:10246000000EE66E06EC03F0176E0B0EE15E1750E1
:10247000C00EE66EE66AE66A2FEC04F0E552E5521D
:10248000E552A90EE66E000EE66E04EC05F0E5528C
:10249000E552140E0001A76FA86BA7510101085D5A
:1024A0000001A8510101095902E282848296140EAA
:1024B000081901E1095106E1829482961E6B1F6B97
:1024C00019EC08F0AED712008486010E000906E070
:1024D000FA0EE66ED1EC1AF0E552828012008150BD
:1024E000020B09E18150040B06E18150080B03E166
:1024F0008150100B07E08282640EE66ED1EC1AF078
:10250000E5528292120081B8C8D071EC1BF06CECDD
:102510001BF0000901E0FBD75AEC1BF0F3CF93F05E
:10252000F4CF94F01C6A1D6AA00E1E6E400E1F6E42
:1025300093C006F094C007F00EEC00F005C020F048
:1025400006C021F007C022F008C023F020C00AF026
:1025500021C00BF022C00CF023C00DF01CC005F010
:102560001DC006F01EC007F01FC008F076EC00F09A
:1025700005C018F006C019F007C01AF008C01BF01B
:102580000A6A0B6AC80E0C6E420E0D6E18C005F07A
:1025900019C006F01AC007F01BC008F076EC00F076
:1025A00005C014F006C015F007C016F008C017F0FB
:1025B0000A6AC00E0B6E7F0E0C6E440E0D6E14C0B8
:1025C00005F015C006F016C007F017C008F023ECA0
:1025D00000F0E3EC00F006C095F007C096F0640E42
:1025E000E66ED1EC1AF0E552DF0EE66EE66A95C0B3
:1025F000E6FF96C0E6FF600E146E040E156E166AB6
:1026000014C0E6FF15C0E6FF16C0E6FFA90EE66E91
:10261000000EE66E06EC03F0176E090EE15E175031
:10262000800EE66EE66AE66A2FEC04F0E552E552AB
:10263000E552A90EE66E000EE66E04EC05F0E552DA
:10264000E552960EE66ED1EC1AF0E552460E146E87
:10265000040E156E166A14C0E6FF15C0E6FF16C01C
:10266000E6FFA90EE66E000EE66E06EC03F0176EAE
:10267000050EE15E1750C10EE66EE66AE66A2FECC3
:1026800004F0E552E552E552A90EE66E000EE66E44
:1026900004EC05F0E552E55236D71200DACFE4FF3C
:1026A000E2CFDAFFE9CFE4FFEACFE4FFF6CFE4FFC1
:1026B000F7CFE4FFF5CFE4FFF3CFE4FFF4CFE4FF7F
:1026C000FACFE4FF00EE00F0140EE80403E3EECFCF
:1026D000E4FFFBD700EE14F0100EE80403E3EECFA6
:1026E000E4FFFBD7E652F2A40DD00101082B000E47
:1026F0000923F2946A0EE66E670EE66E99EC1AF004
:10270000E552E55201013C0E081901E1095105E1CC
:10271000086B096B102B000E11233C0E101901E100
:10272000115105E1106B116B0E2B000E0F23180ECB
:102730000E1901E10F5102E10E6B0F6BE55200EE35
:1027400023F0100EE80403E3E5CFEDFFFBD700EE26
:1027500013F0140EE80403E3E5CFEDFFFBD7E5CF5C
:10276000FAFFE5CFF4FFE5CFF3FFE5CFF5FFE5CFC7
:10277000F7FFE5CFF6FFE5CFEAFFE5CFE9FFE5CFCD
:04278000DAFF11006B
:0C278400FEEC18F0FB0EDBCFF3FFDB06D1
:10279000F35000090AE04CEC19F0FA0EB7EC19F00E
:1027A000F3E1151CF1E1010E01D0000E2DEF19F03F
:1027B000FEEC18F03B0EE12402E3E168E652E16E24
:1027C000010EDB6A020EDB6AF90EDBCFF6FFFA0EB2
:1027D000DBCFF7FFFB0EDBCFF8FF0800F550DF6E15
:1027E000DF5002E151EF18F0250EDF5C02E044EF0C
:1027F00018F0030EDB6A040EDB6A050EDB6A060EB8
:10280000DB6A070EDB6A66EC18F02D0EDF5C0CE06D
:102810002B0EDF5C09E0200EDF5C06E0230EDF5CA0
:1028200003E0300EDF5C1AE1DF50300A14E0130AD7
:102830000FE0030A0AE00B0A05E0060AE4E1030ED2
:10284000DB80E1D7030EDB82DED7030EDB84DBD730
:10285000030EDB86D8D7030EDB88D5D72A0EDF5CC4
:102860001BE162EC18F0B0EC18F010E0030EDB8016
:1028700006680768130EDBCF0BF0140EDBCF0CF0ED
:10288000F6EC01F0040E04C0DBFF03D0130E99EC4C
:1028900018F066EC18F00BD0090EDB6A07EC19F0A3
:1028A00003E07BEC19F0FAD7090E99EC18F0030E4F
:1028B000DBB0DB982E0EDF5C1BE166EC18F02A0E15
:1028C000DF5C0BE162EC18F0B0EC18F003E1130EE2
:1028D000EBEC18F066EC18F00BD0090EDB6A07EC95
:1028E00019F003E07BEC19F0FAD7090EEBEC18F0C5
:1028F000680EDF5C07E166EC18F0680EDF5C1DE136
:10290000030E18D0740EDF5C17E07A0EDF5C14E063
:10291000480EDF5C06E0540EDF5C03E05A0EDF5C1D
:1029200002E1020E07D06C0EDF5C03E06A0EDF5C92
:1029300004E1010E3EEC19F0C9DBDF506E0A01E143
:102940007FD31E0A01E192D1200A01E18FD13F0A13
:1029500001E149D11A0A01E146D10D0A01E143D151
:10296000200A01E140D13A0A01E13DD1200A01E10A
:102970003AD1260A01E135D10D0A01E132D11A0A14
:1029800001E1D9D0200A4AE0300A1FE0460A0EE0F1
:10299000250A01E083D3D950F90FE96EFF0EDA2042
:1029A000EA6E010EEE5E000EEE5AEE5A4CEC19F095
:1029B000250EE66E95DB03E1151C01E169D348ECB9
:1029C00019F001E26BD3DB2A69D3080EDB6A040E2F
:1029D000DB50010806E2040EDB0410EC19F0DB50BA
:1029E0008BDB080EDB5009E0030EDB50010B05E129
:1029F00072DB01E04DD3080EDB6A64DBEFCFDFFF53
:102A0000C0EC19F003E1151C01E142D348EC19F0C8
:102A100001E3DB2A60DB01E141D33AD3070EDB504F
:102A200002080FE18CEC19F0030E53EC19F00E0EB6
:102A3000EECFDBFF0F0EEECFDBFF100EEECFDBFF96
:102A400020D0F70EDBCF17F0F80EDBCF18F0020E18
:102A5000175E000E185AF70E17C0DBFFF80E18C0ED
:102A6000DBFF17C0E9FF18C0EAFF43EC19F0166A54
:102A70000E0E14C0DBFF0F0E15C0DBFF100E16C0CC
:102A8000DBFF0E0EDBCFE6FF0F0EDBCFE6FF100EF7
:102A9000DBCFE6FF50EC1AF0E552E552E552130E9B
:102AA00005C0DBFF140E06C0DBFF060EDB5005E0A1
:102AB000130E87EC19F001E26ADBABEC19F002E2CD
:102AC000130E37DB6EEC19F006E0040E87EC19F0FC
:102AD00002E2050E2EDB030EDBB005D0FCDA01E0CE
:102AE000D7D2080EDB6A090EDB6A0E0EDBCFF6FFCB
:102AF0000F0EDBCFF7FF100EDBCFF8FF0800F5500D
:102B0000DF6EDF5014E0B1EC19F011E2C0EC19F007
:102B100003E1151C01E1BCD2BBDB01E3DB2A090E9A
:102B2000DB2AD9500E0FE96E000ECBDBE7D7D3DAE4
:102B300001E1B4D2ADD2C6DA110EEECFDBFF120E38
:102B4000EDCFDBFF110EDBCFE6FF120EDBCFE6FF92
:102B500042EC1AF0E552E552130EF3CFDBFF140EF0
:102B6000F4CFDBFF060EDB5004E0130ED0DB01E2F6
:102B70000EDBABEC19F002E2130EDBDAAFDB05E0A3
:102B8000040EC5DB02E2050ED4DA030EDBB005D07D
:102B9000A2DA01E07DD2080EDB6A090EDB6A110EB3
:102BA000DBCFE9FF120EDBCFEAFFEFCFDFFFDF5015
:102BB00014E0D7DB12E2E4DB03E1151C01E168D28B
:102BC00067DB01E3DB2A090EDB2A110EDB2ADBCFF0
:102BD000E9FF120EE8E3DB2AE6D77DDA01E15ED2F7
:102BE00057D2030EDB8E070EDB0410E195DB040EDB
:102BF0005ADB0A0EEECFDBFF0B0EEECFDBFF0C0E27
:102C0000EECFDBFF0D0EEECFDBFF6CD0070EDB50FF
:102C100003082CE1030EDBAE0DD0B2DA020E76DA39
:102C2000EFCF14F0156A166A176A14AE39D015681A
:102C3000166835D0F70EDBCF15F0F80EDBCF16F0A7
:102C4000020E155E000E165AF70E15C0DBFFF80EC9
:102C500016C0DBFF15C0E9FF16C0EAFFEFCF14F086
:102C60000A0E14C0DBFF0B0EDB6A38D0070EDB50F8
:102C7000020809E1030EDBAE04D059DB16AE10D01A
:102C80000ED055DB0DD0030EDBAE12D079DA020E7A
:102C90003DDAF9DA166A176A15AE02D016681768B7
:102CA000E2DA0C0E16C0DBFF0D0E17C0DBFF1AD0E8
:102CB000F70EDBCF16F0F80EDBCF17F0020E165E24
:102CC000000E175AF70E16C0DBFFF80E17C0DBFF19
:102CD00016C0E9FF17C0EAFFD6DAC5DA0C0EDB6AC8
:102CE0000D0EDB6A060EDB5005E1010EF36E050EDC
:102CF000F3CFDBFF150EDB6A160EDB6AD950370FF8
:102D0000146E000EDA20156E390E14C0DBFF3A0E79
:102D100015C0DBFF380EDB6A080EDB6A0A0EAEDA7E
:102D2000DF50780A12E0200A10E0280A0CE0200A9E
:102D30000AE03F0A06E00D0A02E0200A08E1020E5E
:102D400005D0080E03D0080EDF26100E97DA030E0A
:102D5000DBBE02D0DB92DB94DB50800B24E08ADA0E
:102D6000D890030EEB50000A08E6000EEE5C000E51
:102D7000EE58000EEE58000EEE5815E213DA096810
:102D80000A680B680C68D3EC19F00A0E00C0DBFF70
:102D90000B0E01C0DBFF0C0E02C0DBFF0D0E03C0EB
:102DA000DBFF2D0E08D0030EDBA202D02B0E03D0CA
:102DB000DBA408D0200EF36E170EF3CFDBFF150E49
:102DC000DB2A02D0170EDB6A050EDB5003E1B7D910
:102DD00001E189D0C60E146E360E156E000E166E09
:102DE000070EDBCF17F0186A196A1A6A17C009F0C4
:102DF00018C00AF019C00BF01AC00CF0D3D975EC4A
:102E00001AF014500024F36E15500120F46E165081
:102E10000220F86EF4CFF7FFF3CFF6FF0800090E9B
:102E2000F5CFDBFF580EDF5C0FE1610EF36E090E8C
:102E30007BD90AE3200E146E090EDBCFE7FF145096
:102E4000E75E090EE7CFDBFF070EDBCF14F0156A54
:102E5000166A176A0FDA14C009F015C00AF016C016
:102E60000BF017C00CF0EECF04F0EECF05F0EECF74
:102E700006F0EFCF07F075EC1AF007C0EDFF06C0C3
:102E8000EDFF05C0EDFF04C0EFFF390EDBCFE9FF1A
:102E9000DB063A0EDBCFEAFF01E2DB06090EDBCFF1
:102EA000EFFF150EDB2A4BD995E1030EDBA61DD0F3
:102EB0006F0EDF5C06E1C1D918E3150EDB285BDA83
:102EC00014D0780EDF5C09E0580EDF5C06E0620E7D
:102ED000DF5C03E0420EDF5C08E1020EF36E160ECB
:102EE000F3CFDBFF02D0150EDB6A030EDB50100BB5
:102EF0000EE0040EDBCF14F0050EDB50D880145426
:102F000006E2060EDB5003E1040EDB5034DA95D9FD
:102F10000AE2050EDBCFE7FF150EDB50E75E050E7C
:102F2000E7CFDBFF02D0050EDB6A040EDBCF14F027
:102F3000160E45D9D880145414E2160EDBCFE6FFE6
:102F4000150EDBCFE6FF040EDBCFE6FF050EDB50F0
:102F5000E552E75CE552D880E754E552D880E75463
:102F60005FD9030EDB50010B0BE1080EDB5008E0CC
:102F7000B2D801E08DD0080EDB50BED8080EDB6A57
:102F8000170EDB5007E088D9170EF1D903E1151CA5
:102F900001E17ED0160EDB5016E07ED9300EE66ED3
:102FA0009FD802E1151C74E077D9DFCFE6FFABECC8
:102FB00003F0E552E552E552F4CF15F00001F31CA1
:102FC00002E1151C65E0050EDBCF14F0160EDB5098
:102FD000D880145409E2050EDBCFE7FF160EDB5054
:102FE000E75E050EE7CFDBFF300EE66E050ECBD9B0
:102FF0004FE1390EDB2ADBCFE9FF3A0E01E3DB2A92
:10300000DBCFEAFF090EEFCFDBFFDB500EE044D948
:10301000090EADD902E1151C3BE0390EDB2ADBCFEE
:10302000E9FF3A0EEDE3DB2AEBD755D831E1160E76
:10303000DBCFE6FF080EC3D8E552E7245DD82ED0DB
:10304000070EDB50030A1CE0010A14E0030A07E044
:103050007BD9DBCFEEFF020EDBCFEDFF1FD0F5D823
:10306000196A17AE02D0186819682CD8BCD819C0D4
:10307000EEFF14D0EAD817BE186824D8B4D80ED002
:1030800063D9DBCFEFFF0AD07BD905E1151C03E143
:10309000F368F46810D0FCD801E3DB2A79D9EDEFAE
:1030A00013F0010EDBCF14F0020EDBCF15F014C0CD
:1030B000F3FF15C0F4FF3B0EE15C02E2E16AE5526A
:1030C000E16ECBD029D9020E53EF19F061D9080077
:1030D000F550DF6E1200200EE66E080EC3EF19F0F9
:1030E000ABEC03F0E552E552E552F3CF14F0F4CF28
:1030F00015F00001F31C1200146E156AD950010F6F
:103100004DD91450EE261550ED221200185E000E17
:10311000195AF70E18C0DBFFF80E19C0DBFF18C0F4
:10312000E9FF19C0EAFF1200DBCFF4FFF350F45CB3
:103130001200DB50E76E040EE7CFDBFF12000A0E31
:10314000DBCF14F00B0EDBCF15F00C0EDBCF16F03F
:103150000D0EDBCF17F014501510161017101200BB
:10316000130EEECFDBFF140EEDCFDBFF130EDBCF24
:1031700014F0140EDBCF15F00001800E15141200B0
:10318000F70EDBCF18F0F80EDBCF19F01200050EAA
:10319000DB50E66ED950130F01D9E552E750EE6EC1
:1031A000ED6A12000A0EDBCF04F00B0EDBCF05F048
:1031B0000C0EDBCF06F00D0EDBCF07F01200DBCFDD
:1031C000E6FF150EDBCFE6FF050EDB50E552E724E8
:1031D000E552E7241200DB50CED8010EF36E060E46
:1031E000F3CFDBFF1200EE50EFCFEAFFE96E16C01F
:1031F000EEFF17C0EEFF18C0EEFF1200D9CFE6FFBA
:10320000DACFE6FFE1CFD9FFE2CFDAFF1200DFCF5E
:10321000E6FFE66AEDEC03F0E552E552F3501200EA
:10322000E76E080EE7CFDBFF1200EECF14F0EECF13
:1032300015F0EFCF16F0176A1200050EDBCF14F071
:10324000150EDB50D88014541200010EDBCF16F09F
:10325000020EDBCF17F0186A1200E552E5CFDAFF55
:10326000E7CFD9FF12000A0E14C0DBFF0B0E15C00A
:10327000DBFF1200D9500A0FCEEF19F0F36E070EE4
:10328000F3CFDBFF1200EECF14F0EFCF15F01200FA
:10329000010EDB2A020E1200FC0EDBCFE6FFFD0E54
:1032A000DBCFE6FF1200145E000E155AF70E14C0B5
:1032B000DBFFF80E15C0DBFF14C0E9FF15C0EAFF05
:1032C0001200DA20EA6EEF2AEECFF6FF000EEF22B0
:1032D000EECFF7FFEF22EECFF8FF1200040EDBCFA8
:1032E000E6FF130EDB50E552E75C9ADFDB5004DFAC
:1032F000060EDB501200090EDB500A0DF350DF24DE
:10330000D00FE76E090EE7CFDBFF66EF18F0DB505A
:10331000F36E050E94EF18F0F70EDBCF14F0F80EF5
:10332000DBCF15F01200DFCFE6FF70EF18F028DFDB
:10333000030EECDE15EF19F0C2EC13F0E552E55286
:10334000E552E55200091200BDDEEE50EFCFEAFF74
:10335000E96E010E1200130EDB50F36E040E94EFB3
:1033600018F0040EDB50F36E090E94EF18F0DBCF6B
:10337000E6FF70EF18F0E76E050EE7CFDBFF1200F7
:103380008BDF93EF19F0DBCFE6FF86DF9CEF19F0C0
:10339000D950F90FE96EFF0E61EF19F0E96E000EDA
:0633A000DA20EA6E1200C3
:0A33A60004500902F3CF00F0F4CF49
:1033B00001F00A02F3500126000EF420026E0450C0
:1033C0000B02F3500226000EF420036E04500C0290
:1033D000F350032605500902F3500126F45002224F
:1033E000000E032205500A02F3500226F450032275
:1033F00005500B02F350032606500902F350022633
:10340000F450032206500A02F35003260750090223
:06341000F3500326120038
:0A341600D9CFE6FFDACFE6FFE1CFE1
:10342000D9FFE2CFDAFFC26AC06AFC0EDB407F0B35
:103430003C0BC26EFC0EDB38F00B300B146EFB0E37
:10344000DB500F0B1410C16EFD0EDB50040DF3505A
:10345000380B156EFD0EDB380F0B070B146EFD0ECF
:10346000DB50800B14101510C06EFC0EDBAE03D0C9
:103470009E9C9D8CF28CC280E552E5CFDAFFE7CFAF
:04348000D9FF12005E
:0C348400FE0EE3CFE9FFFF0EE3CFEAFFEE
:10349000F36AF46AEE5203E0F34AF42AFBD712000F
:1034A000FF0EE3CFF8FFE552FF0EE3CFF7FFE55243
:1034B000FF0EE3CFF6FFE552E66AE66AE66A090028
:1034C000F55209E0FD0EE32A05E1FE0EE32A02E1D2
:1034D000FF0EE32AF4D7FD0EE3CF05F0FE0EE3CF97
:0A34E00006F0FF0EE3CF07F0120024
:0634EA00036A026A016A98
:1034F000006A200EE76ED890043605360636073689
:1035000000360136023603360950005C0A50015875
:103510000B5002580C50035809E30950005E0A5042
:10352000015A0B50025A0C50035A042AE72EE4D7D2
:02353000120087
:0E353200D9CFE6FFDACFE6FFE1CFD9FFE2CF37
:10354000DAFFE652E652FC0EDBCFDEFFDBCFDDFF1B
:10355000010EDB50D76EDF50D66EE552E552E552D4
:0A356000E5CFDAFFE7CFD9FF120034
:06356A00D9CFE6FFDACF25
:10357000E6FFE1CFD9FFE2CFDAFFFD0EDB507F0B94
:10358000D56ED76AD66AF294FD0EDBAE02D0F28A0F
:1035900001D0F29AD58EE552E5CFDAFFE7CFD9FF19
:0235A000120017
:0E35A200FF0EE350256EEF0E01D0F30EE76E24
:1035B000E72ED8EF1AF00C0E246EE76AE72EDEEF46
:1035C0001AF0242EDDEF1AF0252ED6EF1AF0120095
:1035D000D9CFE6FFDACFE6FFE1CFD9FFE2CFDAFFBE
:1035E000C30EC214146EFD0EDB407F0B3C0B141097
:0E35F000C26EE552E5CFDAFFE7CFD9FF120039
:0235FE00036A5E
:10360000026A100EE76ED890063607360236033689
:103610000B50025C0C50035805E30B50025E0C503B
:0A362000035A062AE72EF0D7120025
:06362A00000EF36E00EE3D
:1036300000F0060E01D81200EA6002D0EE6AFCD754
:0A364000F350E9601200EE6AFCD7B7
:06364A0015EE00F025EE74
:1036500000F0F86A0F9C5CEC03F0FFEC03F019EC4F
:0636600008F0FBD7120088
:0A366600FF0EE350ACBA04D0AF6AC7
:10367000AB8EAC8A949CACA2FED7AD6EF36EF46AAE
:02368000120036
:0E368200FF0EE350256E1B0E00D001D0200E6F
:0E369000E76EE72EFED7252EFAD700D01200E7
:02369E00FF0E1D
:1036A000E350E84E1200000000D000D000D0E82E19
:0436B000FAD7120033
:0C36B400C450176E166AC3501610F36E57
:0636C00017C0F4FF120028
:0A36C60030313233343536373839ED
:0736D000616263646566009E
:0836D800C250020B01E0010EDB
:0236E0001200D6
:0436E200C28212008E
:0A36E6000E1D1F1F181F1F0E00000D
:1036F00000000000000000000000000000000000CA
:1037000000000000000001000000000000000000B8
:1037100000000000000000000000000000000000A9
:020000040030CA
:0100010002FC
:010002001EDF
:010003001EDE
:010005008179
:010006008178
:00000001FF
